{"abi":[{"type":"constructor","inputs":[{"name":"configFilePath","type":"string","internalType":"string"},{"name":"writeToFile","type":"bool","internalType":"bool"}],"stateMutability":"nonpayable"},{"type":"function","name":"get","inputs":[{"name":"key","type":"string","internalType":"string"}],"outputs":[{"name":"","type":"tuple","internalType":"struct Variable","components":[{"name":"ty","type":"tuple","internalType":"struct Type","components":[{"name":"kind","type":"uint8","internalType":"enum TypeKind"},{"name":"isArray","type":"bool","internalType":"bool"}]},{"name":"data","type":"bytes","internalType":"bytes"}]}],"stateMutability":"view"},{"type":"function","name":"get","inputs":[{"name":"chain_id","type":"uint256","internalType":"uint256"},{"name":"key","type":"string","internalType":"string"}],"outputs":[{"name":"","type":"tuple","internalType":"struct Variable","components":[{"name":"ty","type":"tuple","internalType":"struct Type","components":[{"name":"kind","type":"uint8","internalType":"enum TypeKind"},{"name":"isArray","type":"bool","internalType":"bool"}]},{"name":"data","type":"bytes","internalType":"bytes"}]}],"stateMutability":"view"},{"type":"function","name":"getChainIds","inputs":[],"outputs":[{"name":"","type":"uint256[]","internalType":"uint256[]"}],"stateMutability":"view"},{"type":"function","name":"getRpcUrl","inputs":[],"outputs":[{"name":"","type":"string","internalType":"string"}],"stateMutability":"view"},{"type":"function","name":"getRpcUrl","inputs":[{"name":"chainId","type":"uint256","internalType":"uint256"}],"outputs":[{"name":"","type":"string","internalType":"string"}],"stateMutability":"view"},{"type":"function","name":"resolveChainId","inputs":[{"name":"aliasOrId","type":"string","internalType":"string"}],"outputs":[{"name":"","type":"uint256","internalType":"uint256"}],"stateMutability":"view"},{"type":"function","name":"set","inputs":[{"name":"chainId","type":"uint256","internalType":"uint256"},{"name":"key","type":"string","internalType":"string"},{"name":"value","type":"int256","internalType":"int256"}],"outputs":[],"stateMutability":"nonpayable"},{"type":"function","name":"set","inputs":[{"name":"chainId","type":"uint256","internalType":"uint256"},{"name":"key","type":"string","internalType":"string"},{"name":"value","type":"bytes32[]","internalType":"bytes32[]"}],"outputs":[],"stateMutability":"nonpayable"},{"type":"function","name":"set","inputs":[{"name":"chainId","type":"uint256","internalType":"uint256"},{"name":"key","type":"string","internalType":"string"},{"name":"value","type":"uint256","internalType":"uint256"}],"outputs":[],"stateMutability":"nonpayable"},{"type":"function","name":"set","inputs":[{"name":"key","type":"string","internalType":"string"},{"name":"value","type":"bytes","internalType":"bytes"}],"outputs":[],"stateMutability":"nonpayable"},{"type":"function","name":"set","inputs":[{"name":"key","type":"string","internalType":"string"},{"name":"value","type":"bytes32","internalType":"bytes32"}],"outputs":[],"stateMutability":"nonpayable"},{"type":"function","name":"set","inputs":[{"name":"key","type":"string","internalType":"string"},{"name":"value","type":"int256","internalType":"int256"}],"outputs":[],"stateMutability":"nonpayable"},{"type":"function","name":"set","inputs":[{"name":"chainId","type":"uint256","internalType":"uint256"},{"name":"key","type":"string","internalType":"string"},{"name":"value","type":"bytes","internalType":"bytes"}],"outputs":[],"stateMutability":"nonpayable"},{"type":"function","name":"set","inputs":[{"name":"key","type":"string","internalType":"string"},{"name":"value","type":"string[]","internalType":"string[]"}],"outputs":[],"stateMutability":"nonpayable"},{"type":"function","name":"set","inputs":[{"name":"chainId","type":"uint256","internalType":"uint256"},{"name":"key","type":"string","internalType":"string"},{"name":"value","type":"address","internalType":"address"}],"outputs":[],"stateMutability":"nonpayable"},{"type":"function","name":"set","inputs":[{"name":"chainId","type":"uint256","internalType":"uint256"},{"name":"key","type":"string","internalType":"string"},{"name":"value","type":"address[]","internalType":"address[]"}],"outputs":[],"stateMutability":"nonpayable"},{"type":"function","name":"set","inputs":[{"name":"chainId","type":"uint256","internalType":"uint256"},{"name":"key","type":"string","internalType":"string"},{"name":"value","type":"string","internalType":"string"}],"outputs":[],"stateMutability":"nonpayable"},{"type":"function","name":"set","inputs":[{"name":"key","type":"string","internalType":"string"},{"name":"value","type":"uint256[]","internalType":"uint256[]"}],"outputs":[],"stateMutability":"nonpayable"},{"type":"function","name":"set","inputs":[{"name":"key","type":"string","internalType":"string"},{"name":"value","type":"address[]","internalType":"address[]"}],"outputs":[],"stateMutability":"nonpayable"},{"type":"function","name":"set","inputs":[{"name":"key","type":"string","internalType":"string"},{"name":"value","type":"uint256","internalType":"uint256"}],"outputs":[],"stateMutability":"nonpayable"},{"type":"function","name":"set","inputs":[{"name":"chainId","type":"uint256","internalType":"uint256"},{"name":"key","type":"string","internalType":"string"},{"name":"value","type":"int256[]","internalType":"int256[]"}],"outputs":[],"stateMutability":"nonpayable"},{"type":"function","name":"set","inputs":[{"name":"chainId","type":"uint256","internalType":"uint256"},{"name":"key","type":"string","internalType":"string"},{"name":"value","type":"bytes[]","internalType":"bytes[]"}],"outputs":[],"stateMutability":"nonpayable"},{"type":"function","name":"set","inputs":[{"name":"key","type":"string","internalType":"string"},{"name":"value","type":"address","internalType":"address"}],"outputs":[],"stateMutability":"nonpayable"},{"type":"function","name":"set","inputs":[{"name":"chainId","type":"uint256","internalType":"uint256"},{"name":"key","type":"string","internalType":"string"},{"name":"value","type":"bool","internalType":"bool"}],"outputs":[],"stateMutability":"nonpayable"},{"type":"function","name":"set","inputs":[{"name":"key","type":"string","internalType":"string"},{"name":"value","type":"bool","internalType":"bool"}],"outputs":[],"stateMutability":"nonpayable"},{"type":"function","name":"set","inputs":[{"name":"key","type":"string","internalType":"string"},{"name":"value","type":"bytes[]","internalType":"bytes[]"}],"outputs":[],"stateMutability":"nonpayable"},{"type":"function","name":"set","inputs":[{"name":"chainId","type":"uint256","internalType":"uint256"},{"name":"key","type":"string","internalType":"string"},{"name":"value","type":"bytes32","internalType":"bytes32"}],"outputs":[],"stateMutability":"nonpayable"},{"type":"function","name":"set","inputs":[{"name":"chainId","type":"uint256","internalType":"uint256"},{"name":"key","type":"string","internalType":"string"},{"name":"value","type":"string[]","internalType":"string[]"}],"outputs":[],"stateMutability":"nonpayable"},{"type":"function","name":"set","inputs":[{"name":"chainId","type":"uint256","internalType":"uint256"},{"name":"key","type":"string","internalType":"string"},{"name":"value","type":"uint256[]","internalType":"uint256[]"}],"outputs":[],"stateMutability":"nonpayable"},{"type":"function","name":"set","inputs":[{"name":"key","type":"string","internalType":"string"},{"name":"value","type":"int256[]","internalType":"int256[]"}],"outputs":[],"stateMutability":"nonpayable"},{"type":"function","name":"set","inputs":[{"name":"chainId","type":"uint256","internalType":"uint256"},{"name":"key","type":"string","internalType":"string"},{"name":"value","type":"bool[]","internalType":"bool[]"}],"outputs":[],"stateMutability":"nonpayable"},{"type":"function","name":"set","inputs":[{"name":"key","type":"string","internalType":"string"},{"name":"value","type":"bytes32[]","internalType":"bytes32[]"}],"outputs":[],"stateMutability":"nonpayable"},{"type":"function","name":"set","inputs":[{"name":"key","type":"string","internalType":"string"},{"name":"value","type":"string","internalType":"string"}],"outputs":[],"stateMutability":"nonpayable"},{"type":"function","name":"set","inputs":[{"name":"key","type":"string","internalType":"string"},{"name":"value","type":"bool[]","internalType":"bool[]"}],"outputs":[],"stateMutability":"nonpayable"},{"type":"function","name":"writeUpdatesBackToFile","inputs":[{"name":"enabled","type":"bool","internalType":"bool"}],"outputs":[],"stateMutability":"nonpayable"},{"type":"error","name":"AlreadyInitialized","inputs":[{"name":"key","type":"string","internalType":"string"}]},{"type":"error","name":"ChainNotInitialized","inputs":[{"name":"chainId","type":"uint256","internalType":"uint256"}]},{"type":"error","name":"InvalidChainKey","inputs":[{"name":"aliasOrId","type":"string","internalType":"string"}]},{"type":"error","name":"TypeMismatch","inputs":[{"name":"expected","type":"string","internalType":"string"},{"name":"actual","type":"string","internalType":"string"}]},{"type":"error","name":"UnableToParseVariable","inputs":[{"name":"key","type":"string","internalType":"string"}]},{"type":"error","name":"WriteToFileInForbiddenCtxt","inputs":[]}],"bytecode":{"object":"0x608060405234801561000f575f5ffd5b5060405161a94a38038061a94a83398181016040528101906100319190612867565b8080156100d657507f885cb69240a935d632d79c317109709ecfa91a80626ff3989d68f67f5b1dd12d5f1c73ffffffffffffffffffffffffffffffffffffffff166364af255d60046040518263ffffffff1660e01b81526004016100959190612934565b602060405180830381865afa1580156100b0573d5f5f3e3d5ffd5b505050506040513d601f19601f820116820180604052508101906100d4919061294d565b155b1561010d576040517f2ebcd21800000000000000000000000000000000000000000000000000000000815260040160405180910390fd5b815f908161011b9190612b99565b508060055f6101000a81548160ff0219169083151502179055505f7f885cb69240a935d632d79c317109709ecfa91a80626ff3989d68f67f5b1dd12d5f1c73ffffffffffffffffffffffffffffffffffffffff1663ddd2128d7f885cb69240a935d632d79c317109709ecfa91a80626ff3989d68f67f5b1dd12d5f1c73ffffffffffffffffffffffffffffffffffffffff166360f9bb11866040518263ffffffff1660e01b81526004016101cf9190612cb0565b5f60405180830381865afa1580156101e9573d5f5f3e3d5ffd5b505050506040513d5f823e3d601f19601f820116820180604052508101906102119190612cd0565b6040518263ffffffff1660e01b815260040161022d9190612cb0565b5f604051808303815f875af1158015610248573d5f5f3e3d5ffd5b505050506040513d5f823e3d601f19601f820116820180604052508101906102709190612cd0565b90505f7f885cb69240a935d632d79c317109709ecfa91a80626ff3989d68f67f5b1dd12d5f1c73ffffffffffffffffffffffffffffffffffffffff1663812a44b2836040518263ffffffff1660e01b81526004016102ce9190612d61565b5f60405180830381865afa1580156102e8573d5f5f3e3d5ffd5b505050506040513d5f823e3d601f19601f820116820180604052508101906103109190612e76565b90505f5f90505b8151811015610975575f82828151811061033457610333612ebd565b5b602002602001015190505f7f885cb69240a935d632d79c317109709ecfa91a80626ff3989d68f67f5b1dd12d5f1c73ffffffffffffffffffffffffffffffffffffffff1663812a44b2868460405160200161038f9190612f4a565b6040516020818303038152906040526040518363ffffffff1660e01b81526004016103bb929190612f6f565b5f60405180830381865afa1580156103d5573d5f5f3e3d5ffd5b505050506040513d5f823e3d601f19601f820116820180604052508101906103fd9190612e76565b51036104095750610968565b5f6104198261097f60201b60201c565b9050600182908060018154018082558091505060019003905f5260205f20015f90919091909150908161044c9190612b99565b507f885cb69240a935d632d79c317109709ecfa91a80626ff3989d68f67f5b1dd12d5f1c73ffffffffffffffffffffffffffffffffffffffff16638bb8dd43868460405160200161049d9190612fca565b6040516020818303038152906040526040518363ffffffff1660e01b81526004016104c9929190612f6f565b5f60405180830381865afa92505050801561050657506040513d5f823e3d601f19601f820116820180604052508101906105039190612cd0565b60015b610667577f885cb69240a935d632d79c317109709ecfa91a80626ff3989d68f67f5b1dd12d5f1c73ffffffffffffffffffffffffffffffffffffffff1663ddd2128d7f885cb69240a935d632d79c317109709ecfa91a80626ff3989d68f67f5b1dd12d5f1c73ffffffffffffffffffffffffffffffffffffffff1663975a6ce9856040518263ffffffff1660e01b81526004016105a39190612cb0565b5f60405180830381865afa1580156105bd573d5f5f3e3d5ffd5b505050506040513d5f823e3d601f19601f820116820180604052508101906105e59190612cd0565b6040518263ffffffff1660e01b81526004016106019190612cb0565b5f604051808303815f875af115801561061c573d5f5f3e3d5ffd5b505050506040513d5f823e3d601f19601f820116820180604052508101906106449190612cd0565b60025f8381526020019081526020015f2090816106619190612b99565b50610725565b7f885cb69240a935d632d79c317109709ecfa91a80626ff3989d68f67f5b1dd12d5f1c73ffffffffffffffffffffffffffffffffffffffff1663ddd2128d826040518263ffffffff1660e01b81526004016106c29190612cb0565b5f604051808303815f875af11580156106dd573d5f5f3e3d5ffd5b505050506040513d5f823e3d601f19601f820116820180604052508101906107059190612cd0565b60025f8481526020019081526020015f2090816107229190612b99565b50505b5f600190505b600760ff168160ff1611610964575f8160ff1660078111156107505761074f6128c1565b5b90505f8461077583600781111561076a576107696128c1565b5b610b0960201b60201c565b604051602001610786929190613024565b60405160208183030381529060405290507f885cb69240a935d632d79c317109709ecfa91a80626ff3989d68f67f5b1dd12d5f1c73ffffffffffffffffffffffffffffffffffffffff1663812a44b289836040518363ffffffff1660e01b81526004016107f4929190612f6f565b5f60405180830381865afa92505050801561083157506040513d5f823e3d601f19601f8201168201806040525081019061082e9190612e76565b60015b1561094f575f5f90505b815181101561094c575f82828151811061085857610857612ebd565b5b602002602001015190505f6007811115610875576108746128c1565b5b60045f8981526020019081526020015f20826040516108949190613065565b90815260200160405180910390205f015f9054906101000a900460ff1660078111156108c3576108c26128c1565b5b03610901576108fc8b85836040516020016108df92919061307b565b604051602081830303815290604052898489610e2760201b60201c565b61093e565b806040517f7140fee00000000000000000000000000000000000000000000000000000000081526004016109359190612cb0565b60405180910390fd5b50808060010191505061083b565b50505b5050808061095c906130e6565b91505061072b565b5050505b8080600101915050610317565b50505050506143d0565b5f7f885cb69240a935d632d79c317109709ecfa91a80626ff3989d68f67f5b1dd12d5f1c73ffffffffffffffffffffffffffffffffffffffff1663fa91454d836040518263ffffffff1660e01b81526004016109db9190612cb0565b602060405180830381865afa925050508015610a1557506040513d601f19601f82011682018060405250810190610a129190613138565b60015b610aff577f885cb69240a935d632d79c317109709ecfa91a80626ff3989d68f67f5b1dd12d5f1c73ffffffffffffffffffffffffffffffffffffffff16634cc1c2bb836040518263ffffffff1660e01b8152600401610a749190612cb0565b5f60405180830381865afa925050508015610ab157506040513d5f823e3d601f19601f82011682018060405250810190610aae9190613234565b60015b610af257816040517f97aa94df000000000000000000000000000000000000000000000000000000008152600401610ae99190612cb0565b60405180910390fd5b8060200151915050610b04565b809150505b919050565b606060016007811115610b1f57610b1e6128c1565b5b826007811115610b3257610b316128c1565b5b03610b74576040518060400160405280600481526020017f626f6f6c000000000000000000000000000000000000000000000000000000008152509050610e22565b60026007811115610b8857610b876128c1565b5b826007811115610b9b57610b9a6128c1565b5b03610bdd576040518060400160405280600781526020017f61646472657373000000000000000000000000000000000000000000000000008152509050610e22565b60036007811115610bf157610bf06128c1565b5b826007811115610c0457610c036128c1565b5b03610c46576040518060400160405280600781526020017f62797465733332000000000000000000000000000000000000000000000000008152509050610e22565b60046007811115610c5a57610c596128c1565b5b826007811115610c6d57610c6c6128c1565b5b03610caf576040518060400160405280600481526020017f75696e74000000000000000000000000000000000000000000000000000000008152509050610e22565b60056007811115610cc357610cc26128c1565b5b826007811115610cd657610cd56128c1565b5b03610d18576040518060400160405280600381526020017f696e7400000000000000000000000000000000000000000000000000000000008152509050610e22565b60066007811115610d2c57610d2b6128c1565b5b826007811115610d3f57610d3e6128c1565b5b03610d81576040518060400160405280600681526020017f737472696e6700000000000000000000000000000000000000000000000000008152509050610e22565b600780811115610d9457610d936128c1565b5b826007811115610da757610da66128c1565b5b03610de9576040518060400160405280600581526020017f62797465730000000000000000000000000000000000000000000000000000008152509050610e22565b6040518060400160405280600481526020017f6e6f6e650000000000000000000000000000000000000000000000000000000081525090505b919050565b5f5f905060016007811115610e3f57610e3e6128c1565b5b826007811115610e5257610e516128c1565b5b036111a8577f885cb69240a935d632d79c317109709ecfa91a80626ff3989d68f67f5b1dd12d5f1c73ffffffffffffffffffffffffffffffffffffffff1663d30dced687876040518363ffffffff1660e01b8152600401610eb4929190612f6f565b602060405180830381865afa925050508015610eee57506040513d601f19601f82011682018060405250810190610eeb919061294d565b60015b61109d577f885cb69240a935d632d79c317109709ecfa91a80626ff3989d68f67f5b1dd12d5f1c73ffffffffffffffffffffffffffffffffffffffff1663127cfe9a87876040518363ffffffff1660e01b8152600401610f4f929190612f6f565b5f60405180830381865afa925050508015610f8c57506040513d5f823e3d601f19601f82011682018060405250810190610f89919061333b565b60015b156110985780604051602001610fa29190613439565b60405160208183030381529060405260035f8781526020019081526020015f2085604051610fd09190613065565b90815260200160405180910390209081610fea91906134c8565b5060405180604001604052806001600781111561100a576110096128c1565b5b81526020016001151581525060045f8781526020019081526020015f20856040516110359190613065565b90815260200160405180910390205f820151815f015f6101000a81548160ff0219169083600781111561106b5761106a6128c1565b5b02179055506020820151815f0160016101000a81548160ff02191690831515021790555090505060019150505b6111a3565b806040516020016110ae91906135a6565b60405160208183030381529060405260035f8781526020019081526020015f20856040516110dc9190613065565b908152602001604051809103902090816110f691906134c8565b50604051806040016040528060016007811115611116576111156128c1565b5b81526020015f151581525060045f8781526020019081526020015f20856040516111409190613065565b90815260200160405180910390205f820151815f015f6101000a81548160ff02191690836007811115611176576111756128c1565b5b02179055506020820151815f0160016101000a81548160ff02191690831515021790555090505060019150505b61269b565b600260078111156111bc576111bb6128c1565b5b8260078111156111cf576111ce6128c1565b5b03611525577f885cb69240a935d632d79c317109709ecfa91a80626ff3989d68f67f5b1dd12d5f1c73ffffffffffffffffffffffffffffffffffffffff166365e7c84487876040518363ffffffff1660e01b8152600401611231929190612f6f565b602060405180830381865afa92505050801561126b57506040513d601f19601f820116820180604052508101906112689190613619565b60015b61141a577f885cb69240a935d632d79c317109709ecfa91a80626ff3989d68f67f5b1dd12d5f1c73ffffffffffffffffffffffffffffffffffffffff166365c428e787876040518363ffffffff1660e01b81526004016112cc929190612f6f565b5f60405180830381865afa92505050801561130957506040513d5f823e3d601f19601f820116820180604052508101906113069190613704565b60015b15611415578060405160200161131f9190613802565b60405160208183030381529060405260035f8781526020019081526020015f208560405161134d9190613065565b9081526020016040518091039020908161136791906134c8565b50604051806040016040528060026007811115611387576113866128c1565b5b81526020016001151581525060045f8781526020019081526020015f20856040516113b29190613065565b90815260200160405180910390205f820151815f015f6101000a81548160ff021916908360078111156113e8576113e76128c1565b5b02179055506020820151815f0160016101000a81548160ff02191690831515021790555090505060019150505b611520565b8060405160200161142b9190613831565b60405160208183030381529060405260035f8781526020019081526020015f20856040516114599190613065565b9081526020016040518091039020908161147391906134c8565b50604051806040016040528060026007811115611493576114926128c1565b5b81526020015f151581525060045f8781526020019081526020015f20856040516114bd9190613065565b90815260200160405180910390205f820151815f015f6101000a81548160ff021916908360078111156114f3576114f26128c1565b5b02179055506020820151815f0160016101000a81548160ff02191690831515021790555090505060019150505b61269a565b60036007811115611539576115386128c1565b5b82600781111561154c5761154b6128c1565b5b036118a2577f885cb69240a935d632d79c317109709ecfa91a80626ff3989d68f67f5b1dd12d5f1c73ffffffffffffffffffffffffffffffffffffffff16638e21481087876040518363ffffffff1660e01b81526004016115ae929190612f6f565b602060405180830381865afa9250505080156115e857506040513d601f19601f820116820180604052508101906115e5919061387d565b60015b611797577f885cb69240a935d632d79c317109709ecfa91a80626ff3989d68f67f5b1dd12d5f1c73ffffffffffffffffffffffffffffffffffffffff16633e716f8187876040518363ffffffff1660e01b8152600401611649929190612f6f565b5f60405180830381865afa92505050801561168657506040513d5f823e3d601f19601f820116820180604052508101906116839190613968565b60015b15611792578060405160200161169c9190613a66565b60405160208183030381529060405260035f8781526020019081526020015f20856040516116ca9190613065565b908152602001604051809103902090816116e491906134c8565b50604051806040016040528060036007811115611704576117036128c1565b5b81526020016001151581525060045f8781526020019081526020015f208560405161172f9190613065565b90815260200160405180910390205f820151815f015f6101000a81548160ff02191690836007811115611765576117646128c1565b5b02179055506020820151815f0160016101000a81548160ff02191690831515021790555090505060019150505b61189d565b806040516020016117a89190613a95565b60405160208183030381529060405260035f8781526020019081526020015f20856040516117d69190613065565b908152602001604051809103902090816117f091906134c8565b506040518060400160405280600360078111156118105761180f6128c1565b5b81526020015f151581525060045f8781526020019081526020015f208560405161183a9190613065565b90815260200160405180910390205f820151815f015f6101000a81548160ff021916908360078111156118705761186f6128c1565b5b02179055506020820151815f0160016101000a81548160ff02191690831515021790555090505060019150505b612699565b600460078111156118b6576118b56128c1565b5b8260078111156118c9576118c86128c1565b5b03611c1f577f885cb69240a935d632d79c317109709ecfa91a80626ff3989d68f67f5b1dd12d5f1c73ffffffffffffffffffffffffffffffffffffffff1663cc7b048787876040518363ffffffff1660e01b815260040161192b929190612f6f565b602060405180830381865afa92505050801561196557506040513d601f19601f820116820180604052508101906119629190613138565b60015b611b14577f885cb69240a935d632d79c317109709ecfa91a80626ff3989d68f67f5b1dd12d5f1c73ffffffffffffffffffffffffffffffffffffffff1663b5df27c887876040518363ffffffff1660e01b81526004016119c6929190612f6f565b5f60405180830381865afa925050508015611a0357506040513d5f823e3d601f19601f82011682018060405250810190611a009190613b6e565b60015b15611b0f5780604051602001611a199190613c6c565b60405160208183030381529060405260035f8781526020019081526020015f2085604051611a479190613065565b90815260200160405180910390209081611a6191906134c8565b50604051806040016040528060046007811115611a8157611a806128c1565b5b81526020016001151581525060045f8781526020019081526020015f2085604051611aac9190613065565b90815260200160405180910390205f820151815f015f6101000a81548160ff02191690836007811115611ae257611ae16128c1565b5b02179055506020820151815f0160016101000a81548160ff02191690831515021790555090505060019150505b611c1a565b80604051602001611b259190613c9b565b60405160208183030381529060405260035f8781526020019081526020015f2085604051611b539190613065565b90815260200160405180910390209081611b6d91906134c8565b50604051806040016040528060046007811115611b8d57611b8c6128c1565b5b81526020015f151581525060045f8781526020019081526020015f2085604051611bb79190613065565b90815260200160405180910390205f820151815f015f6101000a81548160ff02191690836007811115611bed57611bec6128c1565b5b02179055506020820151815f0160016101000a81548160ff02191690831515021790555090505060019150505b612698565b60056007811115611c3357611c326128c1565b5b826007811115611c4657611c456128c1565b5b03611f9c577f885cb69240a935d632d79c317109709ecfa91a80626ff3989d68f67f5b1dd12d5f1c73ffffffffffffffffffffffffffffffffffffffff1663c135073987876040518363ffffffff1660e01b8152600401611ca8929190612f6f565b602060405180830381865afa925050508015611ce257506040513d601f19601f82011682018060405250810190611cdf9190613ce7565b60015b611e91577f885cb69240a935d632d79c317109709ecfa91a80626ff3989d68f67f5b1dd12d5f1c73ffffffffffffffffffffffffffffffffffffffff1663d3522ae687876040518363ffffffff1660e01b8152600401611d43929190612f6f565b5f60405180830381865afa925050508015611d8057506040513d5f823e3d601f19601f82011682018060405250810190611d7d9190613dd2565b60015b15611e8c5780604051602001611d969190613ed0565b60405160208183030381529060405260035f8781526020019081526020015f2085604051611dc49190613065565b90815260200160405180910390209081611dde91906134c8565b50604051806040016040528060056007811115611dfe57611dfd6128c1565b5b81526020016001151581525060045f8781526020019081526020015f2085604051611e299190613065565b90815260200160405180910390205f820151815f015f6101000a81548160ff02191690836007811115611e5f57611e5e6128c1565b5b02179055506020820151815f0160016101000a81548160ff02191690831515021790555090505060019150505b611f97565b80604051602001611ea29190613eff565b60405160208183030381529060405260035f8781526020019081526020015f2085604051611ed09190613065565b90815260200160405180910390209081611eea91906134c8565b50604051806040016040528060056007811115611f0a57611f096128c1565b5b81526020015f151581525060045f8781526020019081526020015f2085604051611f349190613065565b90815260200160405180910390205f820151815f015f6101000a81548160ff02191690836007811115611f6a57611f696128c1565b5b02179055506020820151815f0160016101000a81548160ff02191690831515021790555090505060019150505b612697565b600780811115611faf57611fae6128c1565b5b826007811115611fc257611fc16128c1565b5b03612319577f885cb69240a935d632d79c317109709ecfa91a80626ff3989d68f67f5b1dd12d5f1c73ffffffffffffffffffffffffffffffffffffffff1663d77bfdb987876040518363ffffffff1660e01b8152600401612024929190612f6f565b5f60405180830381865afa92505050801561206157506040513d5f823e3d601f19601f8201168201806040525081019061205e9190613fb6565b60015b61220f577f885cb69240a935d632d79c317109709ecfa91a80626ff3989d68f67f5b1dd12d5f1c73ffffffffffffffffffffffffffffffffffffffff1663b197c24787876040518363ffffffff1660e01b81526004016120c2929190612f6f565b5f60405180830381865afa9250505080156120ff57506040513d5f823e3d601f19601f820116820180604052508101906120fc91906140db565b60015b1561220a57806040516020016121159190614225565b60405160208183030381529060405260035f8781526020019081526020015f20856040516121439190613065565b9081526020016040518091039020908161215d91906134c8565b50604051806040016040528060078081111561217c5761217b6128c1565b5b81526020016001151581525060045f8781526020019081526020015f20856040516121a79190613065565b90815260200160405180910390205f820151815f015f6101000a81548160ff021916908360078111156121dd576121dc6128c1565b5b02179055506020820151815f0160016101000a81548160ff02191690831515021790555090505060019150505b612314565b80604051602001612220919061428d565b60405160208183030381529060405260035f8781526020019081526020015f208560405161224e9190613065565b9081526020016040518091039020908161226891906134c8565b506040518060400160405280600780811115612287576122866128c1565b5b81526020015f151581525060045f8781526020019081526020015f20856040516122b19190613065565b90815260200160405180910390205f820151815f015f6101000a81548160ff021916908360078111156122e7576122e66128c1565b5b02179055506020820151815f0160016101000a81548160ff02191690831515021790555090505060019150505b612696565b6006600781111561232d5761232c6128c1565b5b8260078111156123405761233f6128c1565b5b03612695577f885cb69240a935d632d79c317109709ecfa91a80626ff3989d68f67f5b1dd12d5f1c73ffffffffffffffffffffffffffffffffffffffff16638bb8dd4387876040518363ffffffff1660e01b81526004016123a2929190612f6f565b5f60405180830381865afa9250505080156123df57506040513d5f823e3d601f19601f820116820180604052508101906123dc9190612cd0565b60015b61258e577f885cb69240a935d632d79c317109709ecfa91a80626ff3989d68f67f5b1dd12d5f1c73ffffffffffffffffffffffffffffffffffffffff16639f62928187876040518363ffffffff1660e01b8152600401612440929190612f6f565b5f60405180830381865afa92505050801561247d57506040513d5f823e3d601f19601f8201168201806040525081019061247a9190612e76565b60015b15612589578060405160200161249391906143b0565b60405160208183030381529060405260035f8781526020019081526020015f20856040516124c19190613065565b908152602001604051809103902090816124db91906134c8565b506040518060400160405280600660078111156124fb576124fa6128c1565b5b81526020016001151581525060045f8781526020019081526020015f20856040516125269190613065565b90815260200160405180910390205f820151815f015f6101000a81548160ff0219169083600781111561255c5761255b6128c1565b5b02179055506020820151815f0160016101000a81548160ff02191690831515021790555090505060019150505b612694565b8060405160200161259f9190612cb0565b60405160208183030381529060405260035f8781526020019081526020015f20856040516125cd9190613065565b908152602001604051809103902090816125e791906134c8565b50604051806040016040528060066007811115612607576126066128c1565b5b81526020015f151581525060045f8781526020019081526020015f20856040516126319190613065565b90815260200160405180910390205f820151815f015f6101000a81548160ff02191690836007811115612667576126666128c1565b5b02179055506020820151815f0160016101000a81548160ff02191690831515021790555090505060019150505b5b5b5b5b5b5b5b806126dd57826040517fea00fa130000000000000000000000000000000000000000000000000000000081526004016126d49190612cb0565b60405180910390fd5b505050505050565b5f604051905090565b5f5ffd5b5f5ffd5b5f5ffd5b5f5ffd5b5f601f19601f8301169050919050565b7f4e487b71000000000000000000000000000000000000000000000000000000005f52604160045260245ffd5b612744826126fe565b810181811067ffffffffffffffff821117156127635761276261270e565b5b80604052505050565b5f6127756126e5565b9050612781828261273b565b919050565b5f67ffffffffffffffff8211156127a05761279f61270e565b5b6127a9826126fe565b9050602081019050919050565b8281835e5f83830152505050565b5f6127d66127d184612786565b61276c565b9050828152602081018484840111156127f2576127f16126fa565b5b6127fd8482856127b6565b509392505050565b5f82601f830112612819576128186126f6565b5b81516128298482602086016127c4565b91505092915050565b5f8115159050919050565b61284681612832565b8114612850575f5ffd5b50565b5f815190506128618161283d565b92915050565b5f5f6040838503121561287d5761287c6126ee565b5b5f83015167ffffffffffffffff81111561289a576128996126f2565b5b6128a685828601612805565b92505060206128b785828601612853565b9150509250929050565b7f4e487b71000000000000000000000000000000000000000000000000000000005f52602160045260245ffd5b600981106128ff576128fe6128c1565b5b50565b5f81905061290f826128ee565b919050565b5f61291e82612902565b9050919050565b61292e81612914565b82525050565b5f6020820190506129475f830184612925565b92915050565b5f60208284031215612962576129616126ee565b5b5f61296f84828501612853565b91505092915050565b5f81519050919050565b7f4e487b71000000000000000000000000000000000000000000000000000000005f52602260045260245ffd5b5f60028204905060018216806129c657607f821691505b6020821081036129d9576129d8612982565b5b50919050565b5f819050815f5260205f209050919050565b5f6020601f8301049050919050565b5f82821b905092915050565b5f60088302612a3b7fffffffffffffffffffffffffffffffffffffffffffffffffffffffffffffffff82612a00565b612a458683612a00565b95508019841693508086168417925050509392505050565b5f819050919050565b5f819050919050565b5f612a89612a84612a7f84612a5d565b612a66565b612a5d565b9050919050565b5f819050919050565b612aa283612a6f565b612ab6612aae82612a90565b848454612a0c565b825550505050565b5f5f905090565b612acd612abe565b612ad8818484612a99565b505050565b5f5b82811015612afe57612af35f828401612ac5565b600181019050612adf565b505050565b601f821115612b515782821115612b5057612b1d816129df565b612b26836129f1565b612b2f856129f1565b6020861015612b3c575f90505b808301612b4b82840382612add565b505050505b5b505050565b5f82821c905092915050565b5f612b715f1984600802612b56565b1980831691505092915050565b5f612b898383612b62565b9150826002028217905092915050565b612ba282612978565b67ffffffffffffffff811115612bbb57612bba61270e565b5b612bc582546129af565b612bd0828285612b03565b5f60209050601f831160018114612c01575f8415612bef578287015190505b612bf98582612b7e565b865550612c60565b601f198416612c0f866129df565b5f5b82811015612c3657848901518255600182019150602085019450602081019050612c11565b86831015612c535784890151612c4f601f891682612b62565b8355505b6001600288020188555050505b505050505050565b5f82825260208201905092915050565b5f612c8282612978565b612c8c8185612c68565b9350612c9c8185602086016127b6565b612ca5816126fe565b840191505092915050565b5f6020820190508181035f830152612cc88184612c78565b905092915050565b5f60208284031215612ce557612ce46126ee565b5b5f82015167ffffffffffffffff811115612d0257612d016126f2565b5b612d0e84828501612805565b91505092915050565b7f24000000000000000000000000000000000000000000000000000000000000005f82015250565b5f612d4b600183612c68565b9150612d5682612d17565b602082019050919050565b5f6040820190508181035f830152612d798184612c78565b90508181036020830152612d8c81612d3f565b905092915050565b5f67ffffffffffffffff821115612dae57612dad61270e565b5b602082029050602081019050919050565b5f5ffd5b5f612dd5612dd084612d94565b61276c565b90508083825260208201905060208402830185811115612df857612df7612dbf565b5b835b81811015612e3f57805167ffffffffffffffff811115612e1d57612e1c6126f6565b5b808601612e2a8982612805565b85526020850194505050602081019050612dfa565b5050509392505050565b5f82601f830112612e5d57612e5c6126f6565b5b8151612e6d848260208601612dc3565b91505092915050565b5f60208284031215612e8b57612e8a6126ee565b5b5f82015167ffffffffffffffff811115612ea857612ea76126f2565b5b612eb484828501612e49565b91505092915050565b7f4e487b71000000000000000000000000000000000000000000000000000000005f52603260045260245ffd5b7f242e000000000000000000000000000000000000000000000000000000000000815250565b5f81905092915050565b5f612f2482612978565b612f2e8185612f10565b9350612f3e8185602086016127b6565b80840191505092915050565b5f612f5482612eea565b600282019150612f648284612f1a565b915081905092915050565b5f6040820190508181035f830152612f878185612c78565b90508181036020830152612f9b8184612c78565b90509392505050565b7f2e656e64706f696e745f75726c00000000000000000000000000000000000000815250565b5f612fd482612eea565b600282019150612fe48284612f1a565b9150612fef82612fa4565b600d8201915081905092915050565b7f2e00000000000000000000000000000000000000000000000000000000000000815250565b5f61302e82612eea565b60028201915061303e8285612f1a565b915061304982612ffe565b6001820191506130598284612f1a565b91508190509392505050565b5f6130708284612f1a565b915081905092915050565b5f6130868285612f1a565b915061309182612ffe565b6001820191506130a18284612f1a565b91508190509392505050565b7f4e487b71000000000000000000000000000000000000000000000000000000005f52601160045260245ffd5b5f60ff82169050919050565b5f6130f0826130da565b915060ff8203613103576131026130ad565b5b600182019050919050565b61311781612a5d565b8114613121575f5ffd5b50565b5f815190506131328161310e565b92915050565b5f6020828403121561314d5761314c6126ee565b5b5f61315a84828501613124565b91505092915050565b5f5ffd5b5f5ffd5b5f608082840312156131805761317f613163565b5b61318a608061276c565b90505f82015167ffffffffffffffff8111156131a9576131a8613167565b5b6131b584828501612805565b5f8301525060206131c884828501613124565b602083015250604082015167ffffffffffffffff8111156131ec576131eb613167565b5b6131f884828501612805565b604083015250606082015167ffffffffffffffff81111561321c5761321b613167565b5b61322884828501612805565b60608301525092915050565b5f60208284031215613249576132486126ee565b5b5f82015167ffffffffffffffff811115613266576132656126f2565b5b6132728482850161316b565b91505092915050565b5f67ffffffffffffffff8211156132955761329461270e565b5b602082029050602081019050919050565b5f6132b86132b38461327b565b61276c565b905080838252602082019050602084028301858111156132db576132da612dbf565b5b835b8181101561330457806132f08882612853565b8452602084019350506020810190506132dd565b5050509392505050565b5f82601f830112613322576133216126f6565b5b81516133328482602086016132a6565b91505092915050565b5f602082840312156133505761334f6126ee565b5b5f82015167ffffffffffffffff81111561336d5761336c6126f2565b5b6133798482850161330e565b91505092915050565b5f81519050919050565b5f82825260208201905092915050565b5f819050602082019050919050565b6133b481612832565b82525050565b5f6133c583836133ab565b60208301905092915050565b5f602082019050919050565b5f6133e782613382565b6133f1818561338c565b93506133fc8361339c565b805f5b8381101561342c57815161341388826133ba565b975061341e836133d1565b9250506001810190506133ff565b5085935050505092915050565b5f6020820190508181035f83015261345181846133dd565b905092915050565b5f81519050919050565b5f819050815f5260205f209050919050565b601f8211156134c357828211156134c25761348f81613463565b613498836129f1565b6134a1856129f1565b60208610156134ae575f90505b8083016134bd82840382612add565b505050505b5b505050565b6134d182613459565b67ffffffffffffffff8111156134ea576134e961270e565b5b6134f482546129af565b6134ff828285613475565b5f60209050601f831160018114613530575f841561351e578287015190505b6135288582612b7e565b86555061358f565b601f19841661353e86613463565b5f5b8281101561356557848901518255600182019150602085019450602081019050613540565b86831015613582578489015161357e601f891682612b62565b8355505b6001600288020188555050505b505050505050565b6135a081612832565b82525050565b5f6020820190506135b95f830184613597565b92915050565b5f73ffffffffffffffffffffffffffffffffffffffff82169050919050565b5f6135e8826135bf565b9050919050565b6135f8816135de565b8114613602575f5ffd5b50565b5f81519050613613816135ef565b92915050565b5f6020828403121561362e5761362d6126ee565b5b5f61363b84828501613605565b91505092915050565b5f67ffffffffffffffff82111561365e5761365d61270e565b5b602082029050602081019050919050565b5f61368161367c84613644565b61276c565b905080838252602082019050602084028301858111156136a4576136a3612dbf565b5b835b818110156136cd57806136b98882613605565b8452602084019350506020810190506136a6565b5050509392505050565b5f82601f8301126136eb576136ea6126f6565b5b81516136fb84826020860161366f565b91505092915050565b5f60208284031215613719576137186126ee565b5b5f82015167ffffffffffffffff811115613736576137356126f2565b5b613742848285016136d7565b91505092915050565b5f81519050919050565b5f82825260208201905092915050565b5f819050602082019050919050565b61377d816135de565b82525050565b5f61378e8383613774565b60208301905092915050565b5f602082019050919050565b5f6137b08261374b565b6137ba8185613755565b93506137c583613765565b805f5b838110156137f55781516137dc8882613783565b97506137e78361379a565b9250506001810190506137c8565b5085935050505092915050565b5f6020820190508181035f83015261381a81846137a6565b905092915050565b61382b816135de565b82525050565b5f6020820190506138445f830184613822565b92915050565b5f819050919050565b61385c8161384a565b8114613866575f5ffd5b50565b5f8151905061387781613853565b92915050565b5f60208284031215613892576138916126ee565b5b5f61389f84828501613869565b91505092915050565b5f67ffffffffffffffff8211156138c2576138c161270e565b5b602082029050602081019050919050565b5f6138e56138e0846138a8565b61276c565b9050808382526020820190506020840283018581111561390857613907612dbf565b5b835b81811015613931578061391d8882613869565b84526020840193505060208101905061390a565b5050509392505050565b5f82601f83011261394f5761394e6126f6565b5b815161395f8482602086016138d3565b91505092915050565b5f6020828403121561397d5761397c6126ee565b5b5f82015167ffffffffffffffff81111561399a576139996126f2565b5b6139a68482850161393b565b91505092915050565b5f81519050919050565b5f82825260208201905092915050565b5f819050602082019050919050565b6139e18161384a565b82525050565b5f6139f283836139d8565b60208301905092915050565b5f602082019050919050565b5f613a14826139af565b613a1e81856139b9565b9350613a29836139c9565b805f5b83811015613a59578151613a4088826139e7565b9750613a4b836139fe565b925050600181019050613a2c565b5085935050505092915050565b5f6020820190508181035f830152613a7e8184613a0a565b905092915050565b613a8f8161384a565b82525050565b5f602082019050613aa85f830184613a86565b92915050565b5f67ffffffffffffffff821115613ac857613ac761270e565b5b602082029050602081019050919050565b5f613aeb613ae684613aae565b61276c565b90508083825260208201905060208402830185811115613b0e57613b0d612dbf565b5b835b81811015613b375780613b238882613124565b845260208401935050602081019050613b10565b5050509392505050565b5f82601f830112613b5557613b546126f6565b5b8151613b65848260208601613ad9565b91505092915050565b5f60208284031215613b8357613b826126ee565b5b5f82015167ffffffffffffffff811115613ba057613b9f6126f2565b5b613bac84828501613b41565b91505092915050565b5f81519050919050565b5f82825260208201905092915050565b5f819050602082019050919050565b613be781612a5d565b82525050565b5f613bf88383613bde565b60208301905092915050565b5f602082019050919050565b5f613c1a82613bb5565b613c248185613bbf565b9350613c2f83613bcf565b805f5b83811015613c5f578151613c468882613bed565b9750613c5183613c04565b925050600181019050613c32565b5085935050505092915050565b5f6020820190508181035f830152613c848184613c10565b905092915050565b613c9581612a5d565b82525050565b5f602082019050613cae5f830184613c8c565b92915050565b5f819050919050565b613cc681613cb4565b8114613cd0575f5ffd5b50565b5f81519050613ce181613cbd565b92915050565b5f60208284031215613cfc57613cfb6126ee565b5b5f613d0984828501613cd3565b91505092915050565b5f67ffffffffffffffff821115613d2c57613d2b61270e565b5b602082029050602081019050919050565b5f613d4f613d4a84613d12565b61276c565b90508083825260208201905060208402830185811115613d7257613d71612dbf565b5b835b81811015613d9b5780613d878882613cd3565b845260208401935050602081019050613d74565b5050509392505050565b5f82601f830112613db957613db86126f6565b5b8151613dc9848260208601613d3d565b91505092915050565b5f60208284031215613de757613de66126ee565b5b5f82015167ffffffffffffffff811115613e0457613e036126f2565b5b613e1084828501613da5565b91505092915050565b5f81519050919050565b5f82825260208201905092915050565b5f819050602082019050919050565b613e4b81613cb4565b82525050565b5f613e5c8383613e42565b60208301905092915050565b5f602082019050919050565b5f613e7e82613e19565b613e888185613e23565b9350613e9383613e33565b805f5b83811015613ec3578151613eaa8882613e51565b9750613eb583613e68565b925050600181019050613e96565b5085935050505092915050565b5f6020820190508181035f830152613ee88184613e74565b905092915050565b613ef981613cb4565b82525050565b5f602082019050613f125f830184613ef0565b92915050565b5f67ffffffffffffffff821115613f3257613f3161270e565b5b613f3b826126fe565b9050602081019050919050565b5f613f5a613f5584613f18565b61276c565b905082815260208101848484011115613f7657613f756126fa565b5b613f818482856127b6565b509392505050565b5f82601f830112613f9d57613f9c6126f6565b5b8151613fad848260208601613f48565b91505092915050565b5f60208284031215613fcb57613fca6126ee565b5b5f82015167ffffffffffffffff811115613fe857613fe76126f2565b5b613ff484828501613f89565b91505092915050565b5f67ffffffffffffffff8211156140175761401661270e565b5b602082029050602081019050919050565b5f61403a61403584613ffd565b61276c565b9050808382526020820190506020840283018581111561405d5761405c612dbf565b5b835b818110156140a457805167ffffffffffffffff811115614082576140816126f6565b5b80860161408f8982613f89565b8552602085019450505060208101905061405f565b5050509392505050565b5f82601f8301126140c2576140c16126f6565b5b81516140d2848260208601614028565b91505092915050565b5f602082840312156140f0576140ef6126ee565b5b5f82015167ffffffffffffffff81111561410d5761410c6126f2565b5b614119848285016140ae565b91505092915050565b5f81519050919050565b5f82825260208201905092915050565b5f819050602082019050919050565b5f82825260208201905092915050565b5f61416582613459565b61416f818561414b565b935061417f8185602086016127b6565b614188816126fe565b840191505092915050565b5f61419e838361415b565b905092915050565b5f602082019050919050565b5f6141bc82614122565b6141c6818561412c565b9350836020820285016141d88561413c565b805f5b8581101561421357848403895281516141f48582614193565b94506141ff836141a6565b925060208a019950506001810190506141db565b50829750879550505050505092915050565b5f6020820190508181035f83015261423d81846141b2565b905092915050565b5f82825260208201905092915050565b5f61425f82613459565b6142698185614245565b93506142798185602086016127b6565b614282816126fe565b840191505092915050565b5f6020820190508181035f8301526142a58184614255565b905092915050565b5f81519050919050565b5f82825260208201905092915050565b5f819050602082019050919050565b5f82825260208201905092915050565b5f6142f082612978565b6142fa81856142d6565b935061430a8185602086016127b6565b614313816126fe565b840191505092915050565b5f61432983836142e6565b905092915050565b5f602082019050919050565b5f614347826142ad565b61435181856142b7565b935083602082028501614363856142c7565b805f5b8581101561439e578484038952815161437f858261431e565b945061438a83614331565b925060208a01995050600181019050614366565b50829750879550505050505092915050565b5f6020820190508181035f8301526143c8818461433d565b905092915050565b61656d806143dd5f395ff3fe608060405234801561000f575f5ffd5b506004361061020f575f3560e01c8063805da4ad11610123578063cf1cfa99116100ab578063de0fc9b31161007a578063de0fc9b3146105af578063e298d00b146105cb578063e6053250146105e7578063e942b51614610603578063fa3c074a1461061f5761020f565b8063cf1cfa991461053f578063cf72a2f31461055b578063d6698dc414610577578063db0075df146105935761020f565b806393dbe6e0116100f257806393dbe6e0146104b3578063a815ff15146104cf578063b3a64001146104eb578063ba0ff22c14610507578063c91ca7ba146105235761020f565b8063805da4ad1461042f57806388c63d451461045f5780638a42ebe91461047b5780638be19924146104975761020f565b806343ec8b6a116101a657806361141c971161017557806361141c971461037b5780636556095014610397578063693ec85e146103b35780637b8fed81146103e35780637df3ef12146103ff5761020f565b806343ec8b6a146103095780634d85ce801461032757806359b39526146103435780635eba0df01461035f5761020f565b80632b29c0fa116101e25780632b29c0fa146102855780632e3196a5146102a15780632ef8ba74146102bd5780633f3a7588146102d95761020f565b806307d79d9a1461021357806308f7b4b21461022f5780631d7763231461024b57806322dc48fd14610269575b5f5ffd5b61022d60048036038101906102289190613dea565b61063b565b005b61024960048036038101906102449190613f4d565b6107ad565b005b610253610a16565b604051610260919061408c565b60405180910390f35b610283600480360381019061027e91906140ac565b610b9b565b005b61029f600480360381019061029a91906141b6565b610d0d565b005b6102bb60048036038101906102b6919061422c565b610daa565b005b6102d760048036038101906102d29190614286565b610e47565b005b6102f360048036038101906102ee91906142e0565b610ee4565b6040516103009190614336565b60405180910390f35b61031161106e565b60405161031e91906143af565b60405180910390f35b610341600480360381019061033c91906143cf565b61119b565b005b61035d60048036038101906103589190614535565b611314565b005b61037960048036038101906103749190614605565b6113b1565b005b61039560048036038101906103909190614731565b61152b565b005b6103b160048036038101906103ac91906147b9565b611794565b005b6103cd60048036038101906103c891906142e0565b611872565b6040516103da9190614987565b60405180910390f35b6103fd60048036038101906103f89190614a67565b611919565b005b61041960048036038101906104149190614add565b6119b6565b60405161042691906143af565b60405180910390f35b61044960048036038101906104449190614b08565b611a57565b6040516104569190614987565b60405180910390f35b61047960048036038101906104749190614b62565b611bb9565b005b61049560048036038101906104909190614bd8565b611c56565b005b6104b160048036038101906104ac9190614cf2565b611cf3565b005b6104cd60048036038101906104c89190614e58565b611f54565b005b6104e960048036038101906104e49190614ee0565b6121bc565b005b61050560048036038101906105009190614f64565b612259565b005b610521600480360381019061051c9190614fd0565b6123cb565b005b61053d6004803603810190610538919061502a565b612468565b005b610559600480360381019061055491906150a0565b612505565b005b6105756004803603810190610570919061510c565b61267f565b005b610591600480360381019061058c9190615194565b61284c565b005b6105ad60048036038101906105a891906151bf565b612944565b005b6105c960048036038101906105c49190615247565b612ba5565b005b6105e560048036038101906105e0919061537d565b612c42565b005b61060160048036038101906105fc9190615405565b612ea3565b005b61061d6004803603810190610618919061547b565b612f40565b005b610639600480360381019061063491906154f1565b612fdd565b005b5f60405180604001604052806005600781111561065b5761065a614841565b5b81526020015f1515815250905061067384848361307a565b816040516020016106849190615576565b60405160208183030381529060405260035f8681526020019081526020015f20846040516106b291906155c9565b908152602001604051809103902090816106cc91906157ed565b5060055f9054906101000a900460ff16156107a7576107a684610703835f015160078111156106fe576106fd614841565b5b6131d2565b857f885cb69240a935d632d79c317109709ecfa91a80626ff3989d68f67f5b1dd12d5f1c73ffffffffffffffffffffffffffffffffffffffff1663a322c40e876040518263ffffffff1660e01b815260040161075f9190615576565b5f60405180830381865afa158015610779573d5f5f3e3d5ffd5b505050506040513d5f823e3d601f19601f820116820180604052508101906107a1919061592a565b6134f0565b5b50505050565b5f6040518060400160405280600360078111156107cd576107cc614841565b5b81526020016001151581525090506107e684848361307a565b816040516020016107f79190615a28565b60405160208183030381529060405260035f8681526020019081526020015f208460405161082591906155c9565b9081526020016040518091039020908161083f91906157ed565b5060055f9054906101000a900460ff1615610a10575f6040518060400160405280600181526020017f5b0000000000000000000000000000000000000000000000000000000000000081525090505f5f90505b83518110156109c2578161095b7f885cb69240a935d632d79c317109709ecfa91a80626ff3989d68f67f5b1dd12d5f1c73ffffffffffffffffffffffffffffffffffffffff1663b11a19e88785815181106108f0576108ef615a48565b5b60200260200101516040518263ffffffff1660e01b81526004016109149190615a84565b5f60405180830381865afa15801561092e573d5f5f3e3d5ffd5b505050506040513d5f823e3d601f19601f82011682018060405250810190610956919061592a565b6135b7565b60405160200161096c929190615a9d565b60405160208183030381529060405291506001845161098b9190615aed565b8110156109b557816040516020016109a39190615b46565b60405160208183030381529060405291505b8080600101915050610892565b50806040516020016109d49190615b91565b6040516020818303038152906040529050610a0e85610a07845f01516007811115610a0257610a01614841565b5b6131d2565b86846134f0565b505b50505050565b60605f6001805480602002602001604051908101604052809291908181526020015f905b82821015610ae2578382905f5260205f20018054610a579061560c565b80601f0160208091040260200160405190810160405280929190818152602001828054610a839061560c565b8015610ace5780601f10610aa557610100808354040283529160200191610ace565b820191905f5260205f20905b815481529060010190602001808311610ab157829003601f168201915b505050505081526020019060010190610a3a565b5050505090505f815167ffffffffffffffff811115610b0457610b03613c93565b5b604051908082528060200260200182016040528015610b325781602001602082028036833780820191505090505b5090505f5f90505b8251811015610b9257610b66838281518110610b5957610b58615a48565b5b6020026020010151610ee4565b828281518110610b7957610b78615a48565b5b6020026020010181815250508080600101915050610b3a565b50809250505090565b5f604051806040016040528060046007811115610bbb57610bba614841565b5b81526020015f15158152509050610bd384848361307a565b81604051602001610be49190614336565b60405160208183030381529060405260035f8681526020019081526020015f2084604051610c1291906155c9565b90815260200160405180910390209081610c2c91906157ed565b5060055f9054906101000a900460ff1615610d0757610d0684610c63835f01516007811115610c5e57610c5d614841565b5b6131d2565b857f885cb69240a935d632d79c317109709ecfa91a80626ff3989d68f67f5b1dd12d5f1c73ffffffffffffffffffffffffffffffffffffffff16636900a3ae876040518263ffffffff1660e01b8152600401610cbf9190614336565b5f60405180830381865afa158015610cd9573d5f5f3e3d5ffd5b505050506040513d5f823e3d601f19601f82011682018060405250810190610d01919061592a565b6134f0565b5b50505050565b610da67f885cb69240a935d632d79c317109709ecfa91a80626ff3989d68f67f5b1dd12d5f1c73ffffffffffffffffffffffffffffffffffffffff16633408e4706040518163ffffffff1660e01b8152600401602060405180830381865afa158015610d7b573d5f5f3e3d5ffd5b505050506040513d601f19601f82011682018060405250810190610d9f9190615bca565b838361119b565b5050565b610e437f885cb69240a935d632d79c317109709ecfa91a80626ff3989d68f67f5b1dd12d5f1c73ffffffffffffffffffffffffffffffffffffffff16633408e4706040518163ffffffff1660e01b8152600401602060405180830381865afa158015610e18573d5f5f3e3d5ffd5b505050506040513d601f19601f82011682018060405250810190610e3c9190615bca565b8383612505565b5050565b610ee07f885cb69240a935d632d79c317109709ecfa91a80626ff3989d68f67f5b1dd12d5f1c73ffffffffffffffffffffffffffffffffffffffff16633408e4706040518163ffffffff1660e01b8152600401602060405180830381865afa158015610eb5573d5f5f3e3d5ffd5b505050506040513d601f19601f82011682018060405250810190610ed99190615bca565b838361063b565b5050565b5f7f885cb69240a935d632d79c317109709ecfa91a80626ff3989d68f67f5b1dd12d5f1c73ffffffffffffffffffffffffffffffffffffffff1663fa91454d836040518263ffffffff1660e01b8152600401610f4091906143af565b602060405180830381865afa925050508015610f7a57506040513d601f19601f82011682018060405250810190610f779190615bca565b60015b611064577f885cb69240a935d632d79c317109709ecfa91a80626ff3989d68f67f5b1dd12d5f1c73ffffffffffffffffffffffffffffffffffffffff16634cc1c2bb836040518263ffffffff1660e01b8152600401610fd991906143af565b5f60405180830381865afa92505050801561101657506040513d5f823e3d601f19601f820116820180604052508101906110139190615cc6565b60015b61105757816040517f97aa94df00000000000000000000000000000000000000000000000000000000815260040161104e91906143af565b60405180910390fd5b8060200151915050611069565b809150505b919050565b606060025f7f885cb69240a935d632d79c317109709ecfa91a80626ff3989d68f67f5b1dd12d5f1c73ffffffffffffffffffffffffffffffffffffffff16633408e4706040518163ffffffff1660e01b8152600401602060405180830381865afa1580156110de573d5f5f3e3d5ffd5b505050506040513d601f19601f820116820180604052508101906111029190615bca565b81526020019081526020015f20805461111a9061560c565b80601f01602080910402602001604051908101604052809291908181526020018280546111469061560c565b80156111915780601f1061116857610100808354040283529160200191611191565b820191905f5260205f20905b81548152906001019060200180831161117457829003601f168201915b5050505050905090565b5f60405180604001604052806007808111156111ba576111b9614841565b5b81526020015f151581525090506111d284848361307a565b816040516020016111e39190615d55565b60405160208183030381529060405260035f8681526020019081526020015f208460405161121191906155c9565b9081526020016040518091039020908161122b91906157ed565b5060055f9054906101000a900460ff161561130e5761130d84611262835f0151600781111561125d5761125c614841565b5b6131d2565b856113087f885cb69240a935d632d79c317109709ecfa91a80626ff3989d68f67f5b1dd12d5f1c73ffffffffffffffffffffffffffffffffffffffff166371aad10d886040518263ffffffff1660e01b81526004016112c19190615d55565b5f60405180830381865afa1580156112db573d5f5f3e3d5ffd5b505050506040513d5f823e3d601f19601f82011682018060405250810190611303919061592a565b6135b7565b6134f0565b5b50505050565b6113ad7f885cb69240a935d632d79c317109709ecfa91a80626ff3989d68f67f5b1dd12d5f1c73ffffffffffffffffffffffffffffffffffffffff16633408e4706040518163ffffffff1660e01b8152600401602060405180830381865afa158015611382573d5f5f3e3d5ffd5b505050506040513d601f19601f820116820180604052508101906113a69190615bca565b838361267f565b5050565b5f6040518060400160405280600260078111156113d1576113d0614841565b5b81526020015f151581525090506113e984848361307a565b816040516020016113fa9190615d84565b60405160208183030381529060405260035f8681526020019081526020015f208460405161142891906155c9565b9081526020016040518091039020908161144291906157ed565b5060055f9054906101000a900460ff16156115255761152484611479835f0151600781111561147457611473614841565b5b6131d2565b8561151f7f885cb69240a935d632d79c317109709ecfa91a80626ff3989d68f67f5b1dd12d5f1c73ffffffffffffffffffffffffffffffffffffffff166356ca623e886040518263ffffffff1660e01b81526004016114d89190615d84565b5f60405180830381865afa1580156114f2573d5f5f3e3d5ffd5b505050506040513d5f823e3d601f19601f8201168201806040525081019061151a919061592a565b6135b7565b6134f0565b5b50505050565b5f60405180604001604052806002600781111561154b5761154a614841565b5b815260200160011515815250905061156484848361307a565b816040516020016115759190615e54565b60405160208183030381529060405260035f8681526020019081526020015f20846040516115a391906155c9565b908152602001604051809103902090816115bd91906157ed565b5060055f9054906101000a900460ff161561178e575f6040518060400160405280600181526020017f5b0000000000000000000000000000000000000000000000000000000000000081525090505f5f90505b835181101561174057816116d97f885cb69240a935d632d79c317109709ecfa91a80626ff3989d68f67f5b1dd12d5f1c73ffffffffffffffffffffffffffffffffffffffff166356ca623e87858151811061166e5761166d615a48565b5b60200260200101516040518263ffffffff1660e01b81526004016116929190615d84565b5f60405180830381865afa1580156116ac573d5f5f3e3d5ffd5b505050506040513d5f823e3d601f19601f820116820180604052508101906116d4919061592a565b6135b7565b6040516020016116ea929190615a9d565b6040516020818303038152906040529150600184516117099190615aed565b81101561173357816040516020016117219190615b46565b60405160208183030381529060405291505b8080600101915050611610565b50806040516020016117529190615b91565b604051602081830303815290604052905061178c85611785845f015160078111156117805761177f614841565b5b6131d2565b86846134f0565b505b50505050565b5f6040518060400160405280600660078111156117b4576117b3614841565b5b81526020015f151581525090506117cc84848361307a565b816040516020016117dd91906143af565b60405160208183030381529060405260035f8681526020019081526020015f208460405161180b91906155c9565b9081526020016040518091039020908161182591906157ed565b5060055f9054906101000a900460ff161561186c5761186b8461185c835f0151600781111561185757611856614841565b5b6131d2565b85611866866135b7565b6134f0565b5b50505050565b61187a613beb565b6119127f885cb69240a935d632d79c317109709ecfa91a80626ff3989d68f67f5b1dd12d5f1c73ffffffffffffffffffffffffffffffffffffffff16633408e4706040518163ffffffff1660e01b8152600401602060405180830381865afa1580156118e8573d5f5f3e3d5ffd5b505050506040513d601f19601f8201168201806040525081019061190c9190615bca565b83611a57565b9050919050565b6119b27f885cb69240a935d632d79c317109709ecfa91a80626ff3989d68f67f5b1dd12d5f1c73ffffffffffffffffffffffffffffffffffffffff16633408e4706040518163ffffffff1660e01b8152600401602060405180830381865afa158015611987573d5f5f3e3d5ffd5b505050506040513d601f19601f820116820180604052508101906119ab9190615bca565b8383612944565b5050565b606060025f8381526020019081526020015f2080546119d49061560c565b80601f0160208091040260200160405190810160405280929190818152602001828054611a009061560c565b8015611a4b5780601f10611a2257610100808354040283529160200191611a4b565b820191905f5260205f20905b815481529060010190602001808311611a2e57829003601f168201915b50505050509050919050565b611a5f613beb565b604051806040016040528060045f8681526020019081526020015f2084604051611a8991906155c9565b90815260200160405180910390206040518060400160405290815f82015f9054906101000a900460ff166007811115611ac557611ac4614841565b5b6007811115611ad757611ad6614841565b5b81526020015f820160019054906101000a900460ff161515151581525050815260200160035f8681526020019081526020015f2084604051611b1991906155c9565b90815260200160405180910390208054611b329061560c565b80601f0160208091040260200160405190810160405280929190818152602001828054611b5e9061560c565b8015611ba95780601f10611b8057610100808354040283529160200191611ba9565b820191905f5260205f20905b815481529060010190602001808311611b8c57829003601f168201915b5050505050815250905092915050565b611c527f885cb69240a935d632d79c317109709ecfa91a80626ff3989d68f67f5b1dd12d5f1c73ffffffffffffffffffffffffffffffffffffffff16633408e4706040518163ffffffff1660e01b8152600401602060405180830381865afa158015611c27573d5f5f3e3d5ffd5b505050506040513d601f19601f82011682018060405250810190611c4b9190615bca565b838361152b565b5050565b611cef7f885cb69240a935d632d79c317109709ecfa91a80626ff3989d68f67f5b1dd12d5f1c73ffffffffffffffffffffffffffffffffffffffff16633408e4706040518163ffffffff1660e01b8152600401602060405180830381865afa158015611cc4573d5f5f3e3d5ffd5b505050506040513d601f19601f82011682018060405250810190611ce89190615bca565b8383610b9b565b5050565b5f604051806040016040528060056007811115611d1357611d12614841565b5b8152602001600115158152509050611d2c84848361307a565b81604051602001611d3d9190615f2b565b60405160208183030381529060405260035f8681526020019081526020015f2084604051611d6b91906155c9565b90815260200160405180910390209081611d8591906157ed565b5060055f9054906101000a900460ff1615611f4e575f6040518060400160405280600181526020017f5b0000000000000000000000000000000000000000000000000000000000000081525090505f5f90505b8351811015611f0057817f885cb69240a935d632d79c317109709ecfa91a80626ff3989d68f67f5b1dd12d5f1c73ffffffffffffffffffffffffffffffffffffffff1663a322c40e868481518110611e3357611e32615a48565b5b60200260200101516040518263ffffffff1660e01b8152600401611e579190615576565b5f60405180830381865afa158015611e71573d5f5f3e3d5ffd5b505050506040513d5f823e3d601f19601f82011682018060405250810190611e99919061592a565b604051602001611eaa929190615a9d565b604051602081830303815290604052915060018451611ec99190615aed565b811015611ef35781604051602001611ee19190615b46565b60405160208183030381529060405291505b8080600101915050611dd8565b5080604051602001611f129190615b91565b6040516020818303038152906040529050611f4c85611f45845f01516007811115611f4057611f3f614841565b5b6131d2565b86846134f0565b505b50505050565b5f6040518060400160405280600780811115611f7357611f72614841565b5b8152602001600115158152509050611f8c84848361307a565b81604051602001611f9d9190616006565b60405160208183030381529060405260035f8681526020019081526020015f2084604051611fcb91906155c9565b90815260200160405180910390209081611fe591906157ed565b5060055f9054906101000a900460ff16156121b6575f6040518060400160405280600181526020017f5b0000000000000000000000000000000000000000000000000000000000000081525090505f5f90505b835181101561216857816121017f885cb69240a935d632d79c317109709ecfa91a80626ff3989d68f67f5b1dd12d5f1c73ffffffffffffffffffffffffffffffffffffffff166371aad10d87858151811061209657612095615a48565b5b60200260200101516040518263ffffffff1660e01b81526004016120ba9190615d55565b5f60405180830381865afa1580156120d4573d5f5f3e3d5ffd5b505050506040513d5f823e3d601f19601f820116820180604052508101906120fc919061592a565b6135b7565b604051602001612112929190615a9d565b6040516020818303038152906040529150600184516121319190615aed565b81101561215b57816040516020016121499190615b46565b60405160208183030381529060405291505b8080600101915050612038565b508060405160200161217a9190615b91565b60405160208183030381529060405290506121b4856121ad845f015160078111156121a8576121a7614841565b5b6131d2565b86846134f0565b505b50505050565b6122557f885cb69240a935d632d79c317109709ecfa91a80626ff3989d68f67f5b1dd12d5f1c73ffffffffffffffffffffffffffffffffffffffff16633408e4706040518163ffffffff1660e01b8152600401602060405180830381865afa15801561222a573d5f5f3e3d5ffd5b505050506040513d601f19601f8201168201806040525081019061224e9190615bca565b83836113b1565b5050565b5f60405180604001604052806001600781111561227957612278614841565b5b81526020015f1515815250905061229184848361307a565b816040516020016122a29190616035565b60405160208183030381529060405260035f8681526020019081526020015f20846040516122d091906155c9565b908152602001604051809103902090816122ea91906157ed565b5060055f9054906101000a900460ff16156123c5576123c484612321835f0151600781111561231c5761231b614841565b5b6131d2565b857f885cb69240a935d632d79c317109709ecfa91a80626ff3989d68f67f5b1dd12d5f1c73ffffffffffffffffffffffffffffffffffffffff166371dce7da876040518263ffffffff1660e01b815260040161237d9190616035565b5f60405180830381865afa158015612397573d5f5f3e3d5ffd5b505050506040513d5f823e3d601f19601f820116820180604052508101906123bf919061592a565b6134f0565b5b50505050565b6124647f885cb69240a935d632d79c317109709ecfa91a80626ff3989d68f67f5b1dd12d5f1c73ffffffffffffffffffffffffffffffffffffffff16633408e4706040518163ffffffff1660e01b8152600401602060405180830381865afa158015612439573d5f5f3e3d5ffd5b505050506040513d601f19601f8201168201806040525081019061245d9190615bca565b8383612259565b5050565b6125017f885cb69240a935d632d79c317109709ecfa91a80626ff3989d68f67f5b1dd12d5f1c73ffffffffffffffffffffffffffffffffffffffff16633408e4706040518163ffffffff1660e01b8152600401602060405180830381865afa1580156124d6573d5f5f3e3d5ffd5b505050506040513d601f19601f820116820180604052508101906124fa9190615bca565b8383611f54565b5050565b5f60405180604001604052806003600781111561252557612524614841565b5b81526020015f1515815250905061253d84848361307a565b8160405160200161254e9190615a84565b60405160208183030381529060405260035f8681526020019081526020015f208460405161257c91906155c9565b9081526020016040518091039020908161259691906157ed565b5060055f9054906101000a900460ff161561267957612678846125cd835f015160078111156125c8576125c7614841565b5b6131d2565b856126737f885cb69240a935d632d79c317109709ecfa91a80626ff3989d68f67f5b1dd12d5f1c73ffffffffffffffffffffffffffffffffffffffff1663b11a19e8886040518263ffffffff1660e01b815260040161262c9190615a84565b5f60405180830381865afa158015612646573d5f5f3e3d5ffd5b505050506040513d5f823e3d601f19601f8201168201806040525081019061266e919061592a565b6135b7565b6134f0565b5b50505050565b5f60405180604001604052806006600781111561269f5761269e614841565b5b81526020016001151581525090506126b884848361307a565b816040516020016126c99190616151565b60405160208183030381529060405260035f8681526020019081526020015f20846040516126f791906155c9565b9081526020016040518091039020908161271191906157ed565b5060055f9054906101000a900460ff1615612846575f6040518060400160405280600181526020017f5b0000000000000000000000000000000000000000000000000000000000000081525090505f5f90505b83518110156127f8578161279185838151811061278457612783615a48565b5b60200260200101516135b7565b6040516020016127a2929190615a9d565b6040516020818303038152906040529150600184516127c19190615aed565b8110156127eb57816040516020016127d99190615b46565b60405160208183030381529060405291505b8080600101915050612764565b508060405160200161280a9190615b91565b60405160208183030381529060405290506128448561283d845f0151600781111561283857612837614841565b5b6131d2565b86846134f0565b505b50505050565b8080156128f157507f885cb69240a935d632d79c317109709ecfa91a80626ff3989d68f67f5b1dd12d5f1c73ffffffffffffffffffffffffffffffffffffffff166364af255d60046040518263ffffffff1660e01b81526004016128b091906161b7565b602060405180830381865afa1580156128cb573d5f5f3e3d5ffd5b505050506040513d601f19601f820116820180604052508101906128ef91906161e4565b155b15612928576040517f2ebcd21800000000000000000000000000000000000000000000000000000000815260040160405180910390fd5b8060055f6101000a81548160ff02191690831515021790555050565b5f60405180604001604052806004600781111561296457612963614841565b5b815260200160011515815250905061297d84848361307a565b8160405160200161298e919061408c565b60405160208183030381529060405260035f8681526020019081526020015f20846040516129bc91906155c9565b908152602001604051809103902090816129d691906157ed565b5060055f9054906101000a900460ff1615612b9f575f6040518060400160405280600181526020017f5b0000000000000000000000000000000000000000000000000000000000000081525090505f5f90505b8351811015612b5157817f885cb69240a935d632d79c317109709ecfa91a80626ff3989d68f67f5b1dd12d5f1c73ffffffffffffffffffffffffffffffffffffffff16636900a3ae868481518110612a8457612a83615a48565b5b60200260200101516040518263ffffffff1660e01b8152600401612aa89190614336565b5f60405180830381865afa158015612ac2573d5f5f3e3d5ffd5b505050506040513d5f823e3d601f19601f82011682018060405250810190612aea919061592a565b604051602001612afb929190615a9d565b604051602081830303815290604052915060018451612b1a9190615aed565b811015612b445781604051602001612b329190615b46565b60405160208183030381529060405291505b8080600101915050612a29565b5080604051602001612b639190615b91565b6040516020818303038152906040529050612b9d85612b96845f01516007811115612b9157612b90614841565b5b6131d2565b86846134f0565b505b50505050565b612c3e7f885cb69240a935d632d79c317109709ecfa91a80626ff3989d68f67f5b1dd12d5f1c73ffffffffffffffffffffffffffffffffffffffff16633408e4706040518163ffffffff1660e01b8152600401602060405180830381865afa158015612c13573d5f5f3e3d5ffd5b505050506040513d601f19601f82011682018060405250810190612c379190615bca565b8383611cf3565b5050565b5f604051806040016040528060016007811115612c6257612c61614841565b5b8152602001600115158152509050612c7b84848361307a565b81604051602001612c8c91906162b7565b60405160208183030381529060405260035f8681526020019081526020015f2084604051612cba91906155c9565b90815260200160405180910390209081612cd491906157ed565b5060055f9054906101000a900460ff1615612e9d575f6040518060400160405280600181526020017f5b0000000000000000000000000000000000000000000000000000000000000081525090505f5f90505b8351811015612e4f57817f885cb69240a935d632d79c317109709ecfa91a80626ff3989d68f67f5b1dd12d5f1c73ffffffffffffffffffffffffffffffffffffffff166371dce7da868481518110612d8257612d81615a48565b5b60200260200101516040518263ffffffff1660e01b8152600401612da69190616035565b5f60405180830381865afa158015612dc0573d5f5f3e3d5ffd5b505050506040513d5f823e3d601f19601f82011682018060405250810190612de8919061592a565b604051602001612df9929190615a9d565b604051602081830303815290604052915060018451612e189190615aed565b811015612e425781604051602001612e309190615b46565b60405160208183030381529060405291505b8080600101915050612d27565b5080604051602001612e619190615b91565b6040516020818303038152906040529050612e9b85612e94845f01516007811115612e8f57612e8e614841565b5b6131d2565b86846134f0565b505b50505050565b612f3c7f885cb69240a935d632d79c317109709ecfa91a80626ff3989d68f67f5b1dd12d5f1c73ffffffffffffffffffffffffffffffffffffffff16633408e4706040518163ffffffff1660e01b8152600401602060405180830381865afa158015612f11573d5f5f3e3d5ffd5b505050506040513d601f19601f82011682018060405250810190612f359190615bca565b83836107ad565b5050565b612fd97f885cb69240a935d632d79c317109709ecfa91a80626ff3989d68f67f5b1dd12d5f1c73ffffffffffffffffffffffffffffffffffffffff16633408e4706040518163ffffffff1660e01b8152600401602060405180830381865afa158015612fae573d5f5f3e3d5ffd5b505050506040513d601f19601f82011682018060405250810190612fd29190615bca565b8383611794565b5050565b6130767f885cb69240a935d632d79c317109709ecfa91a80626ff3989d68f67f5b1dd12d5f1c73ffffffffffffffffffffffffffffffffffffffff16633408e4706040518163ffffffff1660e01b8152600401602060405180830381865afa15801561304b573d5f5f3e3d5ffd5b505050506040513d601f19601f8201168201806040525081019061306f9190615bca565b8383612c42565b5050565b5f60045f8581526020019081526020015f208360405161309a91906155c9565b90815260200160405180910390206040518060400160405290815f82015f9054906101000a900460ff1660078111156130d6576130d5614841565b5b60078111156130e8576130e7614841565b5b81526020015f820160019054906101000a900460ff16151515158152505090505f600781111561311b5761311a614841565b5b815f0151600781111561313157613130614841565b5b036131b8578160045f8681526020019081526020015f208460405161315691906155c9565b90815260200160405180910390205f820151815f015f6101000a81548160ff0219169083600781111561318c5761318b614841565b5b02179055506020820151815f0160016101000a81548160ff0219169083151502179055509050506131cc565b6131cb82826135e090919063ffffffff16565b5b50505050565b6060600160078111156131e8576131e7614841565b5b8260078111156131fb576131fa614841565b5b0361323d576040518060400160405280600481526020017f626f6f6c0000000000000000000000000000000000000000000000000000000081525090506134eb565b6002600781111561325157613250614841565b5b82600781111561326457613263614841565b5b036132a6576040518060400160405280600781526020017f616464726573730000000000000000000000000000000000000000000000000081525090506134eb565b600360078111156132ba576132b9614841565b5b8260078111156132cd576132cc614841565b5b0361330f576040518060400160405280600781526020017f627974657333320000000000000000000000000000000000000000000000000081525090506134eb565b6004600781111561332357613322614841565b5b82600781111561333657613335614841565b5b03613378576040518060400160405280600481526020017f75696e740000000000000000000000000000000000000000000000000000000081525090506134eb565b6005600781111561338c5761338b614841565b5b82600781111561339f5761339e614841565b5b036133e1576040518060400160405280600381526020017f696e74000000000000000000000000000000000000000000000000000000000081525090506134eb565b600660078111156133f5576133f4614841565b5b82600781111561340857613407614841565b5b0361344a576040518060400160405280600681526020017f737472696e67000000000000000000000000000000000000000000000000000081525090506134eb565b60078081111561345d5761345c614841565b5b8260078111156134705761346f614841565b5b036134b2576040518060400160405280600581526020017f627974657300000000000000000000000000000000000000000000000000000081525090506134eb565b6040518060400160405280600481526020017f6e6f6e650000000000000000000000000000000000000000000000000000000081525090505b919050565b5f6134fa85613641565b90505f81858560405160200161351293929190616323565b60405160208183030381529060405290507f885cb69240a935d632d79c317109709ecfa91a80626ff3989d68f67f5b1dd12d5f1c73ffffffffffffffffffffffffffffffffffffffff166351ac6a33845f846040518463ffffffff1660e01b815260040161358293929190616413565b5f604051808303815f87803b158015613599575f5ffd5b505af11580156135ab573d5f5f3e3d5ffd5b50505050505050505050565b6060816040516020016135ca9190616483565b6040516020818303038152906040529050919050565b6135ea8282613801565b61363d576135f78161384e565b6136008361384e565b6040517fb02cf71d0000000000000000000000000000000000000000000000000000000081526004016136349291906164b7565b60405180910390fd5b5050565b60605f5f90505b6001805490508110156137be57826137016001838154811061366d5761366c615a48565b5b905f5260205f200180546136809061560c565b80601f01602080910402602001604051908101604052809291908181526020018280546136ac9061560c565b80156136f75780601f106136ce576101008083540402835291602001916136f7565b820191905f5260205f20905b8154815290600101906020018083116136da57829003601f168201915b5050505050610ee4565b036137b1576001818154811061371a57613719615a48565b5b905f5260205f2001805461372d9061560c565b80601f01602080910402602001604051908101604052809291908181526020018280546137599061560c565b80156137a45780601f1061377b576101008083540402835291602001916137a4565b820191905f5260205f20905b81548152906001019060200180831161378757829003601f168201915b50505050509150506137fc565b8080600101915050613648565b50816040517f3ff29f060000000000000000000000000000000000000000000000000000000081526004016137f39190614336565b60405180910390fd5b919050565b5f815f0151600781111561381857613817614841565b5b835f0151600781111561382e5761382d614841565b5b14801561384657508160200151151583602001511515145b905092915050565b60605f61385d835f01516138cd565b90508260200151158061389657505f600781111561387e5761387d614841565b5b835f0151600781111561389457613893614841565b5b145b156138a457809150506138c8565b806040516020016138b59190616512565b6040516020818303038152906040529150505b919050565b6060600160078111156138e3576138e2614841565b5b8260078111156138f6576138f5614841565b5b03613938576040518060400160405280600481526020017f626f6f6c000000000000000000000000000000000000000000000000000000008152509050613be6565b6002600781111561394c5761394b614841565b5b82600781111561395f5761395e614841565b5b036139a1576040518060400160405280600781526020017f61646472657373000000000000000000000000000000000000000000000000008152509050613be6565b600360078111156139b5576139b4614841565b5b8260078111156139c8576139c7614841565b5b03613a0a576040518060400160405280600781526020017f62797465733332000000000000000000000000000000000000000000000000008152509050613be6565b60046007811115613a1e57613a1d614841565b5b826007811115613a3157613a30614841565b5b03613a73576040518060400160405280600781526020017f75696e74323536000000000000000000000000000000000000000000000000008152509050613be6565b60056007811115613a8757613a86614841565b5b826007811115613a9a57613a99614841565b5b03613adc576040518060400160405280600681526020017f696e7432353600000000000000000000000000000000000000000000000000008152509050613be6565b60066007811115613af057613aef614841565b5b826007811115613b0357613b02614841565b5b03613b45576040518060400160405280600681526020017f737472696e6700000000000000000000000000000000000000000000000000008152509050613be6565b600780811115613b5857613b57614841565b5b826007811115613b6b57613b6a614841565b5b03613bad576040518060400160405280600581526020017f62797465730000000000000000000000000000000000000000000000000000008152509050613be6565b6040518060400160405280600481526020017f6e6f6e650000000000000000000000000000000000000000000000000000000081525090505b919050565b6040518060400160405280613bfe613c0b565b8152602001606081525090565b60405180604001604052805f6007811115613c2957613c28614841565b5b81526020015f151581525090565b5f604051905090565b5f5ffd5b5f5ffd5b5f819050919050565b613c5a81613c48565b8114613c64575f5ffd5b50565b5f81359050613c7581613c51565b92915050565b5f5ffd5b5f5ffd5b5f601f19601f8301169050919050565b7f4e487b71000000000000000000000000000000000000000000000000000000005f52604160045260245ffd5b613cc982613c83565b810181811067ffffffffffffffff82111715613ce857613ce7613c93565b5b80604052505050565b5f613cfa613c37565b9050613d068282613cc0565b919050565b5f67ffffffffffffffff821115613d2557613d24613c93565b5b613d2e82613c83565b9050602081019050919050565b828183375f83830152505050565b5f613d5b613d5684613d0b565b613cf1565b905082815260208101848484011115613d7757613d76613c7f565b5b613d82848285613d3b565b509392505050565b5f82601f830112613d9e57613d9d613c7b565b5b8135613dae848260208601613d49565b91505092915050565b5f819050919050565b613dc981613db7565b8114613dd3575f5ffd5b50565b5f81359050613de481613dc0565b92915050565b5f5f5f60608486031215613e0157613e00613c40565b5b5f613e0e86828701613c67565b935050602084013567ffffffffffffffff811115613e2f57613e2e613c44565b5b613e3b86828701613d8a565b9250506040613e4c86828701613dd6565b9150509250925092565b5f67ffffffffffffffff821115613e7057613e6f613c93565b5b602082029050602081019050919050565b5f5ffd5b5f819050919050565b613e9781613e85565b8114613ea1575f5ffd5b50565b5f81359050613eb281613e8e565b92915050565b5f613eca613ec584613e56565b613cf1565b90508083825260208201905060208402830185811115613eed57613eec613e81565b5b835b81811015613f165780613f028882613ea4565b845260208401935050602081019050613eef565b5050509392505050565b5f82601f830112613f3457613f33613c7b565b5b8135613f44848260208601613eb8565b91505092915050565b5f5f5f60608486031215613f6457613f63613c40565b5b5f613f7186828701613c67565b935050602084013567ffffffffffffffff811115613f9257613f91613c44565b5b613f9e86828701613d8a565b925050604084013567ffffffffffffffff811115613fbf57613fbe613c44565b5b613fcb86828701613f20565b9150509250925092565b5f81519050919050565b5f82825260208201905092915050565b5f819050602082019050919050565b61400781613c48565b82525050565b5f6140188383613ffe565b60208301905092915050565b5f602082019050919050565b5f61403a82613fd5565b6140448185613fdf565b935061404f83613fef565b805f5b8381101561407f578151614066888261400d565b975061407183614024565b925050600181019050614052565b5085935050505092915050565b5f6020820190508181035f8301526140a48184614030565b905092915050565b5f5f5f606084860312156140c3576140c2613c40565b5b5f6140d086828701613c67565b935050602084013567ffffffffffffffff8111156140f1576140f0613c44565b5b6140fd86828701613d8a565b925050604061410e86828701613c67565b9150509250925092565b5f67ffffffffffffffff82111561413257614131613c93565b5b61413b82613c83565b9050602081019050919050565b5f61415a61415584614118565b613cf1565b90508281526020810184848401111561417657614175613c7f565b5b614181848285613d3b565b509392505050565b5f82601f83011261419d5761419c613c7b565b5b81356141ad848260208601614148565b91505092915050565b5f5f604083850312156141cc576141cb613c40565b5b5f83013567ffffffffffffffff8111156141e9576141e8613c44565b5b6141f585828601613d8a565b925050602083013567ffffffffffffffff81111561421657614215613c44565b5b61422285828601614189565b9150509250929050565b5f5f6040838503121561424257614241613c40565b5b5f83013567ffffffffffffffff81111561425f5761425e613c44565b5b61426b85828601613d8a565b925050602061427c85828601613ea4565b9150509250929050565b5f5f6040838503121561429c5761429b613c40565b5b5f83013567ffffffffffffffff8111156142b9576142b8613c44565b5b6142c585828601613d8a565b92505060206142d685828601613dd6565b9150509250929050565b5f602082840312156142f5576142f4613c40565b5b5f82013567ffffffffffffffff81111561431257614311613c44565b5b61431e84828501613d8a565b91505092915050565b61433081613c48565b82525050565b5f6020820190506143495f830184614327565b92915050565b5f81519050919050565b5f82825260208201905092915050565b8281835e5f83830152505050565b5f6143818261434f565b61438b8185614359565b935061439b818560208601614369565b6143a481613c83565b840191505092915050565b5f6020820190508181035f8301526143c78184614377565b905092915050565b5f5f5f606084860312156143e6576143e5613c40565b5b5f6143f386828701613c67565b935050602084013567ffffffffffffffff81111561441457614413613c44565b5b61442086828701613d8a565b925050604084013567ffffffffffffffff81111561444157614440613c44565b5b61444d86828701614189565b9150509250925092565b5f67ffffffffffffffff82111561447157614470613c93565b5b602082029050602081019050919050565b5f61449461448f84614457565b613cf1565b905080838252602082019050602084028301858111156144b7576144b6613e81565b5b835b818110156144fe57803567ffffffffffffffff8111156144dc576144db613c7b565b5b8086016144e98982613d8a565b855260208501945050506020810190506144b9565b5050509392505050565b5f82601f83011261451c5761451b613c7b565b5b813561452c848260208601614482565b91505092915050565b5f5f6040838503121561454b5761454a613c40565b5b5f83013567ffffffffffffffff81111561456857614567613c44565b5b61457485828601613d8a565b925050602083013567ffffffffffffffff81111561459557614594613c44565b5b6145a185828601614508565b9150509250929050565b5f73ffffffffffffffffffffffffffffffffffffffff82169050919050565b5f6145d4826145ab565b9050919050565b6145e4816145ca565b81146145ee575f5ffd5b50565b5f813590506145ff816145db565b92915050565b5f5f5f6060848603121561461c5761461b613c40565b5b5f61462986828701613c67565b935050602084013567ffffffffffffffff81111561464a57614649613c44565b5b61465686828701613d8a565b9250506040614667868287016145f1565b9150509250925092565b5f67ffffffffffffffff82111561468b5761468a613c93565b5b602082029050602081019050919050565b5f6146ae6146a984614671565b613cf1565b905080838252602082019050602084028301858111156146d1576146d0613e81565b5b835b818110156146fa57806146e688826145f1565b8452602084019350506020810190506146d3565b5050509392505050565b5f82601f83011261471857614717613c7b565b5b813561472884826020860161469c565b91505092915050565b5f5f5f6060848603121561474857614747613c40565b5b5f61475586828701613c67565b935050602084013567ffffffffffffffff81111561477657614775613c44565b5b61478286828701613d8a565b925050604084013567ffffffffffffffff8111156147a3576147a2613c44565b5b6147af86828701614704565b9150509250925092565b5f5f5f606084860312156147d0576147cf613c40565b5b5f6147dd86828701613c67565b935050602084013567ffffffffffffffff8111156147fe576147fd613c44565b5b61480a86828701613d8a565b925050604084013567ffffffffffffffff81111561482b5761482a613c44565b5b61483786828701613d8a565b9150509250925092565b7f4e487b71000000000000000000000000000000000000000000000000000000005f52602160045260245ffd5b6008811061487f5761487e614841565b5b50565b5f81905061488f8261486e565b919050565b5f61489e82614882565b9050919050565b6148ae81614894565b82525050565b5f8115159050919050565b6148c8816148b4565b82525050565b604082015f8201516148e25f8501826148a5565b5060208201516148f560208501826148bf565b50505050565b5f81519050919050565b5f82825260208201905092915050565b5f61491f826148fb565b6149298185614905565b9350614939818560208601614369565b61494281613c83565b840191505092915050565b5f606083015f8301516149625f8601826148ce565b506020830151848203604086015261497a8282614915565b9150508091505092915050565b5f6020820190508181035f83015261499f818461494d565b905092915050565b5f67ffffffffffffffff8211156149c1576149c0613c93565b5b602082029050602081019050919050565b5f6149e46149df846149a7565b613cf1565b90508083825260208201905060208402830185811115614a0757614a06613e81565b5b835b81811015614a305780614a1c8882613c67565b845260208401935050602081019050614a09565b5050509392505050565b5f82601f830112614a4e57614a4d613c7b565b5b8135614a5e8482602086016149d2565b91505092915050565b5f5f60408385031215614a7d57614a7c613c40565b5b5f83013567ffffffffffffffff811115614a9a57614a99613c44565b5b614aa685828601613d8a565b925050602083013567ffffffffffffffff811115614ac757614ac6613c44565b5b614ad385828601614a3a565b9150509250929050565b5f60208284031215614af257614af1613c40565b5b5f614aff84828501613c67565b91505092915050565b5f5f60408385031215614b1e57614b1d613c40565b5b5f614b2b85828601613c67565b925050602083013567ffffffffffffffff811115614b4c57614b4b613c44565b5b614b5885828601613d8a565b9150509250929050565b5f5f60408385031215614b7857614b77613c40565b5b5f83013567ffffffffffffffff811115614b9557614b94613c44565b5b614ba185828601613d8a565b925050602083013567ffffffffffffffff811115614bc257614bc1613c44565b5b614bce85828601614704565b9150509250929050565b5f5f60408385031215614bee57614bed613c40565b5b5f83013567ffffffffffffffff811115614c0b57614c0a613c44565b5b614c1785828601613d8a565b9250506020614c2885828601613c67565b9150509250929050565b5f67ffffffffffffffff821115614c4c57614c4b613c93565b5b602082029050602081019050919050565b5f614c6f614c6a84614c32565b613cf1565b90508083825260208201905060208402830185811115614c9257614c91613e81565b5b835b81811015614cbb5780614ca78882613dd6565b845260208401935050602081019050614c94565b5050509392505050565b5f82601f830112614cd957614cd8613c7b565b5b8135614ce9848260208601614c5d565b91505092915050565b5f5f5f60608486031215614d0957614d08613c40565b5b5f614d1686828701613c67565b935050602084013567ffffffffffffffff811115614d3757614d36613c44565b5b614d4386828701613d8a565b925050604084013567ffffffffffffffff811115614d6457614d63613c44565b5b614d7086828701614cc5565b9150509250925092565b5f67ffffffffffffffff821115614d9457614d93613c93565b5b602082029050602081019050919050565b5f614db7614db284614d7a565b613cf1565b90508083825260208201905060208402830185811115614dda57614dd9613e81565b5b835b81811015614e2157803567ffffffffffffffff811115614dff57614dfe613c7b565b5b808601614e0c8982614189565b85526020850194505050602081019050614ddc565b5050509392505050565b5f82601f830112614e3f57614e3e613c7b565b5b8135614e4f848260208601614da5565b91505092915050565b5f5f5f60608486031215614e6f57614e6e613c40565b5b5f614e7c86828701613c67565b935050602084013567ffffffffffffffff811115614e9d57614e9c613c44565b5b614ea986828701613d8a565b925050604084013567ffffffffffffffff811115614eca57614ec9613c44565b5b614ed686828701614e2b565b9150509250925092565b5f5f60408385031215614ef657614ef5613c40565b5b5f83013567ffffffffffffffff811115614f1357614f12613c44565b5b614f1f85828601613d8a565b9250506020614f30858286016145f1565b9150509250929050565b614f43816148b4565b8114614f4d575f5ffd5b50565b5f81359050614f5e81614f3a565b92915050565b5f5f5f60608486031215614f7b57614f7a613c40565b5b5f614f8886828701613c67565b935050602084013567ffffffffffffffff811115614fa957614fa8613c44565b5b614fb586828701613d8a565b9250506040614fc686828701614f50565b9150509250925092565b5f5f60408385031215614fe657614fe5613c40565b5b5f83013567ffffffffffffffff81111561500357615002613c44565b5b61500f85828601613d8a565b925050602061502085828601614f50565b9150509250929050565b5f5f604083850312156150405761503f613c40565b5b5f83013567ffffffffffffffff81111561505d5761505c613c44565b5b61506985828601613d8a565b925050602083013567ffffffffffffffff81111561508a57615089613c44565b5b61509685828601614e2b565b9150509250929050565b5f5f5f606084860312156150b7576150b6613c40565b5b5f6150c486828701613c67565b935050602084013567ffffffffffffffff8111156150e5576150e4613c44565b5b6150f186828701613d8a565b925050604061510286828701613ea4565b9150509250925092565b5f5f5f6060848603121561512357615122613c40565b5b5f61513086828701613c67565b935050602084013567ffffffffffffffff81111561515157615150613c44565b5b61515d86828701613d8a565b925050604084013567ffffffffffffffff81111561517e5761517d613c44565b5b61518a86828701614508565b9150509250925092565b5f602082840312156151a9576151a8613c40565b5b5f6151b684828501614f50565b91505092915050565b5f5f5f606084860312156151d6576151d5613c40565b5b5f6151e386828701613c67565b935050602084013567ffffffffffffffff81111561520457615203613c44565b5b61521086828701613d8a565b925050604084013567ffffffffffffffff81111561523157615230613c44565b5b61523d86828701614a3a565b9150509250925092565b5f5f6040838503121561525d5761525c613c40565b5b5f83013567ffffffffffffffff81111561527a57615279613c44565b5b61528685828601613d8a565b925050602083013567ffffffffffffffff8111156152a7576152a6613c44565b5b6152b385828601614cc5565b9150509250929050565b5f67ffffffffffffffff8211156152d7576152d6613c93565b5b602082029050602081019050919050565b5f6152fa6152f5846152bd565b613cf1565b9050808382526020820190506020840283018581111561531d5761531c613e81565b5b835b8181101561534657806153328882614f50565b84526020840193505060208101905061531f565b5050509392505050565b5f82601f83011261536457615363613c7b565b5b81356153748482602086016152e8565b91505092915050565b5f5f5f6060848603121561539457615393613c40565b5b5f6153a186828701613c67565b935050602084013567ffffffffffffffff8111156153c2576153c1613c44565b5b6153ce86828701613d8a565b925050604084013567ffffffffffffffff8111156153ef576153ee613c44565b5b6153fb86828701615350565b9150509250925092565b5f5f6040838503121561541b5761541a613c40565b5b5f83013567ffffffffffffffff81111561543857615437613c44565b5b61544485828601613d8a565b925050602083013567ffffffffffffffff81111561546557615464613c44565b5b61547185828601613f20565b9150509250929050565b5f5f6040838503121561549157615490613c40565b5b5f83013567ffffffffffffffff8111156154ae576154ad613c44565b5b6154ba85828601613d8a565b925050602083013567ffffffffffffffff8111156154db576154da613c44565b5b6154e785828601613d8a565b9150509250929050565b5f5f6040838503121561550757615506613c40565b5b5f83013567ffffffffffffffff81111561552457615523613c44565b5b61553085828601613d8a565b925050602083013567ffffffffffffffff81111561555157615550613c44565b5b61555d85828601615350565b9150509250929050565b61557081613db7565b82525050565b5f6020820190506155895f830184615567565b92915050565b5f81905092915050565b5f6155a38261434f565b6155ad818561558f565b93506155bd818560208601614369565b80840191505092915050565b5f6155d48284615599565b915081905092915050565b7f4e487b71000000000000000000000000000000000000000000000000000000005f52602260045260245ffd5b5f600282049050600182168061562357607f821691505b602082108103615636576156356155df565b5b50919050565b5f819050815f5260205f209050919050565b5f6020601f8301049050919050565b5f82821b905092915050565b5f600883026156987fffffffffffffffffffffffffffffffffffffffffffffffffffffffffffffffff8261565d565b6156a2868361565d565b95508019841693508086168417925050509392505050565b5f819050919050565b5f6156dd6156d86156d384613c48565b6156ba565b613c48565b9050919050565b5f819050919050565b6156f6836156c3565b61570a615702826156e4565b848454615669565b825550505050565b5f5f905090565b615721615712565b61572c8184846156ed565b505050565b5f5b82811015615752576157475f828401615719565b600181019050615733565b505050565b601f8211156157a557828211156157a4576157718161563c565b61577a8361564e565b6157838561564e565b6020861015615790575f90505b80830161579f82840382615731565b505050505b5b505050565b5f82821c905092915050565b5f6157c55f19846008026157aa565b1980831691505092915050565b5f6157dd83836157b6565b9150826002028217905092915050565b6157f6826148fb565b67ffffffffffffffff81111561580f5761580e613c93565b5b615819825461560c565b615824828285615757565b5f60209050601f831160018114615855575f8415615843578287015190505b61584d85826157d2565b8655506158b4565b601f1984166158638661563c565b5f5b8281101561588a57848901518255600182019150602085019450602081019050615865565b868310156158a757848901516158a3601f8916826157b6565b8355505b6001600288020188555050505b505050505050565b5f6158ce6158c984613d0b565b613cf1565b9050828152602081018484840111156158ea576158e9613c7f565b5b6158f5848285614369565b509392505050565b5f82601f83011261591157615910613c7b565b5b81516159218482602086016158bc565b91505092915050565b5f6020828403121561593f5761593e613c40565b5b5f82015167ffffffffffffffff81111561595c5761595b613c44565b5b615968848285016158fd565b91505092915050565b5f81519050919050565b5f82825260208201905092915050565b5f819050602082019050919050565b6159a381613e85565b82525050565b5f6159b4838361599a565b60208301905092915050565b5f602082019050919050565b5f6159d682615971565b6159e0818561597b565b93506159eb8361598b565b805f5b83811015615a1b578151615a0288826159a9565b9750615a0d836159c0565b9250506001810190506159ee565b5085935050505092915050565b5f6020820190508181035f830152615a4081846159cc565b905092915050565b7f4e487b71000000000000000000000000000000000000000000000000000000005f52603260045260245ffd5b615a7e81613e85565b82525050565b5f602082019050615a975f830184615a75565b92915050565b5f615aa88285615599565b9150615ab48284615599565b91508190509392505050565b7f4e487b71000000000000000000000000000000000000000000000000000000005f52601160045260245ffd5b5f615af782613c48565b9150615b0283613c48565b9250828203905081811115615b1a57615b19615ac0565b5b92915050565b7f2c00000000000000000000000000000000000000000000000000000000000000815250565b5f615b518284615599565b9150615b5c82615b20565b60018201915081905092915050565b7f5d00000000000000000000000000000000000000000000000000000000000000815250565b5f615b9c8284615599565b9150615ba782615b6b565b60018201915081905092915050565b5f81519050615bc481613c51565b92915050565b5f60208284031215615bdf57615bde613c40565b5b5f615bec84828501615bb6565b91505092915050565b5f5ffd5b5f5ffd5b5f60808284031215615c1257615c11615bf5565b5b615c1c6080613cf1565b90505f82015167ffffffffffffffff811115615c3b57615c3a615bf9565b5b615c47848285016158fd565b5f830152506020615c5a84828501615bb6565b602083015250604082015167ffffffffffffffff811115615c7e57615c7d615bf9565b5b615c8a848285016158fd565b604083015250606082015167ffffffffffffffff811115615cae57615cad615bf9565b5b615cba848285016158fd565b60608301525092915050565b5f60208284031215615cdb57615cda613c40565b5b5f82015167ffffffffffffffff811115615cf857615cf7613c44565b5b615d0484828501615bfd565b91505092915050565b5f82825260208201905092915050565b5f615d27826148fb565b615d318185615d0d565b9350615d41818560208601614369565b615d4a81613c83565b840191505092915050565b5f6020820190508181035f830152615d6d8184615d1d565b905092915050565b615d7e816145ca565b82525050565b5f602082019050615d975f830184615d75565b92915050565b5f81519050919050565b5f82825260208201905092915050565b5f819050602082019050919050565b615dcf816145ca565b82525050565b5f615de08383615dc6565b60208301905092915050565b5f602082019050919050565b5f615e0282615d9d565b615e0c8185615da7565b9350615e1783615db7565b805f5b83811015615e47578151615e2e8882615dd5565b9750615e3983615dec565b925050600181019050615e1a565b5085935050505092915050565b5f6020820190508181035f830152615e6c8184615df8565b905092915050565b5f81519050919050565b5f82825260208201905092915050565b5f819050602082019050919050565b615ea681613db7565b82525050565b5f615eb78383615e9d565b60208301905092915050565b5f602082019050919050565b5f615ed982615e74565b615ee38185615e7e565b9350615eee83615e8e565b805f5b83811015615f1e578151615f058882615eac565b9750615f1083615ec3565b925050600181019050615ef1565b5085935050505092915050565b5f6020820190508181035f830152615f438184615ecf565b905092915050565b5f81519050919050565b5f82825260208201905092915050565b5f819050602082019050919050565b5f615f7f8383614915565b905092915050565b5f602082019050919050565b5f615f9d82615f4b565b615fa78185615f55565b935083602082028501615fb985615f65565b805f5b85811015615ff45784840389528151615fd58582615f74565b9450615fe083615f87565b925060208a01995050600181019050615fbc565b50829750879550505050505092915050565b5f6020820190508181035f83015261601e8184615f93565b905092915050565b61602f816148b4565b82525050565b5f6020820190506160485f830184616026565b92915050565b5f81519050919050565b5f82825260208201905092915050565b5f819050602082019050919050565b5f82825260208201905092915050565b5f6160918261434f565b61609b8185616077565b93506160ab818560208601614369565b6160b481613c83565b840191505092915050565b5f6160ca8383616087565b905092915050565b5f602082019050919050565b5f6160e88261604e565b6160f28185616058565b93508360208202850161610485616068565b805f5b8581101561613f578484038952815161612085826160bf565b945061612b836160d2565b925060208a01995050600181019050616107565b50829750879550505050505092915050565b5f6020820190508181035f83015261616981846160de565b905092915050565b6009811061618257616181614841565b5b50565b5f81905061619282616171565b919050565b5f6161a182616185565b9050919050565b6161b181616197565b82525050565b5f6020820190506161ca5f8301846161a8565b92915050565b5f815190506161de81614f3a565b92915050565b5f602082840312156161f9576161f8613c40565b5b5f616206848285016161d0565b91505092915050565b5f81519050919050565b5f82825260208201905092915050565b5f819050602082019050919050565b5f61624383836148bf565b60208301905092915050565b5f602082019050919050565b5f6162658261620f565b61626f8185616219565b935061627a83616229565b805f5b838110156162aa5781516162918882616238565b975061629c8361624f565b92505060018101905061627d565b5085935050505092915050565b5f6020820190508181035f8301526162cf818461625b565b905092915050565b7f242e000000000000000000000000000000000000000000000000000000000000815250565b7f2e00000000000000000000000000000000000000000000000000000000000000815250565b5f61632d826162d7565b60028201915061633d8286615599565b9150616348826162fd565b6001820191506163588285615599565b9150616363826162fd565b6001820191506163738284615599565b9150819050949350505050565b5f819050815f5260205f209050919050565b5f815461639e8161560c565b6163a88186614359565b9450600182165f81146163c257600181146163d85761640a565b60ff19831686528115156020028601935061640a565b6163e185616380565b5f5b83811015616402578154818901526001820191506020810190506163e3565b808801955050505b50505092915050565b5f6060820190508181035f83015261642b8186614377565b9050818103602083015261643f8185616392565b905081810360408301526164538184614377565b9050949350505050565b7f2200000000000000000000000000000000000000000000000000000000000000815250565b5f61648d8261645d565b60018201915061649d8284615599565b91506164a88261645d565b60018201915081905092915050565b5f6040820190508181035f8301526164cf8185614377565b905081810360208301526164e38184614377565b90509392505050565b7f5b5d000000000000000000000000000000000000000000000000000000000000815250565b5f61651d8284615599565b9150616528826164ec565b6002820191508190509291505056fea26469706673582212200c9a2feabe77008620f7b0b18fe02fbf9891d83e4b7ace6b613f9e10904bd45a64736f6c63430008210033","linkReferences":{}},"methodIdentifiers":{"get(string)":"693ec85e","get(uint256,string)":"805da4ad","getChainIds()":"1d776323","getRpcUrl()":"43ec8b6a","getRpcUrl(uint256)":"7df3ef12","resolveChainId(string)":"3f3a7588","set(string,address)":"a815ff15","set(string,address[])":"88c63d45","set(string,bool)":"ba0ff22c","set(string,bool[])":"fa3c074a","set(string,bytes)":"2b29c0fa","set(string,bytes32)":"2e3196a5","set(string,bytes32[])":"e6053250","set(string,bytes[])":"c91ca7ba","set(string,int256)":"2ef8ba74","set(string,int256[])":"de0fc9b3","set(string,string)":"e942b516","set(string,string[])":"59b39526","set(string,uint256)":"8a42ebe9","set(string,uint256[])":"7b8fed81","set(uint256,string,address)":"5eba0df0","set(uint256,string,address[])":"61141c97","set(uint256,string,bool)":"b3a64001","set(uint256,string,bool[])":"e298d00b","set(uint256,string,bytes)":"4d85ce80","set(uint256,string,bytes32)":"cf1cfa99","set(uint256,string,bytes32[])":"08f7b4b2","set(uint256,string,bytes[])":"93dbe6e0","set(uint256,string,int256)":"07d79d9a","set(uint256,string,int256[])":"8be19924","set(uint256,string,string)":"65560950","set(uint256,string,string[])":"cf72a2f3","set(uint256,string,uint256)":"22dc48fd","set(uint256,string,uint256[])":"db0075df","writeUpdatesBackToFile(bool)":"d6698dc4"},"id":7}