{"abi":[{"type":"constructor","inputs":[{"name":"_mnee","type":"address","internalType":"address"}],"stateMutability":"nonpayable"},{"type":"function","name":"complete","inputs":[{"name":"pactId","type":"uint256","internalType":"uint256"},{"name":"payout","type":"uint256","internalType":"uint256"}],"outputs":[],"stateMutability":"nonpayable"},{"type":"function","name":"createPact","inputs":[{"name":"creator","type":"address","internalType":"address"},{"name":"maxPayout","type":"uint256","internalType":"uint256"},{"name":"durationSeconds","type":"uint256","internalType":"uint256"}],"outputs":[{"name":"pactId","type":"uint256","internalType":"uint256"}],"stateMutability":"nonpayable"},{"type":"function","name":"mnee","inputs":[],"outputs":[{"name":"","type":"address","internalType":"contract IERC20"}],"stateMutability":"view"},{"type":"function","name":"pactCount","inputs":[],"outputs":[{"name":"","type":"uint256","internalType":"uint256"}],"stateMutability":"view"},{"type":"function","name":"pacts","inputs":[{"name":"","type":"uint256","internalType":"uint256"}],"outputs":[{"name":"sponsor","type":"address","internalType":"address"},{"name":"creator","type":"address","internalType":"address"},{"name":"maxPayout","type":"uint256","internalType":"uint256"},{"name":"deadline","type":"uint256","internalType":"uint256"},{"name":"status","type":"uint8","internalType":"enum PactEscrow.Status"},{"name":"fundedAmount","type":"uint256","internalType":"uint256"}],"stateMutability":"view"},{"type":"function","name":"refund","inputs":[{"name":"pactId","type":"uint256","internalType":"uint256"}],"outputs":[],"stateMutability":"nonpayable"}],"bytecode":{"object":"0x60a060405234801561000f575f5ffd5b50604051611250380380611250833981810160405281019061003191906100c9565b8073ffffffffffffffffffffffffffffffffffffffff1660808173ffffffffffffffffffffffffffffffffffffffff1681525050506100f4565b5f5ffd5b5f73ffffffffffffffffffffffffffffffffffffffff82169050919050565b5f6100988261006f565b9050919050565b6100a88161008e565b81146100b2575f5ffd5b50565b5f815190506100c38161009f565b92915050565b5f602082840312156100de576100dd61006b565b5b5f6100eb848285016100b5565b91505092915050565b60805161112f6101215f395f81816102be015281816105f0015281816107a201526108ab015261112f5ff3fe608060405234801561000f575f5ffd5b5060043610610060575f3560e01c80630edf25f514610064578063278ecde1146100995780634de17faf146100b557806379b34cce146100e5578063d6380f3714610103578063f10fb3da1461011f575b5f5ffd5b61007e600480360381019061007991906109b8565b61013d565b60405161009096959493929190610aa4565b60405180910390f35b6100b360048036038101906100ae91906109b8565b6101bf565b005b6100cf60048036038101906100ca9190610b2d565b6103c0565b6040516100dc9190610b7d565b60405180910390f35b6100ed6105ee565b6040516100fa9190610bf1565b60405180910390f35b61011d60048036038101906101189190610c0a565b610612565b005b61012761097c565b6040516101349190610b7d565b60405180910390f35b6001602052805f5260405f205f91509050805f015f9054906101000a900473ffffffffffffffffffffffffffffffffffffffff1690806001015f9054906101000a900473ffffffffffffffffffffffffffffffffffffffff1690806002015490806003015490806004015f9054906101000a900460ff16908060050154905086565b5f60015f8381526020019081526020015f20905080600301544211610219576040517f08c379a000000000000000000000000000000000000000000000000000000000815260040161021090610ca2565b60405180910390fd5b6001600381111561022d5761022c610a31565b5b816004015f9054906101000a900460ff1660038111156102505761024f610a31565b5b14610290576040517f08c379a000000000000000000000000000000000000000000000000000000000815260040161028790610d0a565b60405180910390fd5b6003816004015f6101000a81548160ff021916908360038111156102b7576102b6610a31565b5b02179055507f000000000000000000000000000000000000000000000000000000000000000073ffffffffffffffffffffffffffffffffffffffff1663a9059cbb825f015f9054906101000a900473ffffffffffffffffffffffffffffffffffffffff1683600501546040518363ffffffff1660e01b815260040161033d929190610d28565b6020604051808303815f875af1158015610359573d5f5f3e3d5ffd5b505050506040513d601f19601f8201168201806040525081019061037d9190610d84565b6103bc576040517f08c379a00000000000000000000000000000000000000000000000000000000081526004016103b390610df9565b60405180910390fd5b5050565b5f5f73ffffffffffffffffffffffffffffffffffffffff168473ffffffffffffffffffffffffffffffffffffffff160361042f576040517f08c379a000000000000000000000000000000000000000000000000000000000815260040161042690610e61565b60405180910390fd5b5f8311610471576040517f08c379a000000000000000000000000000000000000000000000000000000000815260040161046890610ec9565b60405180910390fd5b5f5f815461047e90610f14565b91905081905590506040518060c001604052803373ffffffffffffffffffffffffffffffffffffffff1681526020018573ffffffffffffffffffffffffffffffffffffffff16815260200184815260200183426104db9190610f5b565b81526020015f60038111156104f3576104f2610a31565b5b81526020015f81525060015f8381526020019081526020015f205f820151815f015f6101000a81548173ffffffffffffffffffffffffffffffffffffffff021916908373ffffffffffffffffffffffffffffffffffffffff1602179055506020820151816001015f6101000a81548173ffffffffffffffffffffffffffffffffffffffff021916908373ffffffffffffffffffffffffffffffffffffffff16021790555060408201518160020155606082015181600301556080820151816004015f6101000a81548160ff021916908360038111156105d5576105d4610a31565b5b021790555060a082015181600501559050509392505050565b7f000000000000000000000000000000000000000000000000000000000000000081565b5f60015f8481526020019081526020015f209050805f015f9054906101000a900473ffffffffffffffffffffffffffffffffffffffff1673ffffffffffffffffffffffffffffffffffffffff163373ffffffffffffffffffffffffffffffffffffffff16146106b6576040517f08c379a00000000000000000000000000000000000000000000000000000000081526004016106ad90610fd8565b60405180910390fd5b600160038111156106ca576106c9610a31565b5b816004015f9054906101000a900460ff1660038111156106ed576106ec610a31565b5b1461072d576040517f08c379a000000000000000000000000000000000000000000000000000000000815260040161072490610d0a565b60405180910390fd5b8060020154821115610774576040517f08c379a000000000000000000000000000000000000000000000000000000000815260040161076b90611040565b60405180910390fd5b6002816004015f6101000a81548160ff0219169083600381111561079b5761079a610a31565b5b02179055507f000000000000000000000000000000000000000000000000000000000000000073ffffffffffffffffffffffffffffffffffffffff1663a9059cbb826001015f9054906101000a900473ffffffffffffffffffffffffffffffffffffffff16846040518363ffffffff1660e01b815260040161081e929190610d28565b6020604051808303815f875af115801561083a573d5f5f3e3d5ffd5b505050506040513d601f19601f8201168201806040525081019061085e9190610d84565b61089d576040517f08c379a0000000000000000000000000000000000000000000000000000000008152600401610894906110a8565b60405180910390fd5b8181600201541115610977577f000000000000000000000000000000000000000000000000000000000000000073ffffffffffffffffffffffffffffffffffffffff1663a9059cbb825f015f9054906101000a900473ffffffffffffffffffffffffffffffffffffffff1684846002015461091891906110c6565b6040518363ffffffff1660e01b8152600401610935929190610d28565b6020604051808303815f875af1158015610951573d5f5f3e3d5ffd5b505050506040513d601f19601f820116820180604052508101906109759190610d84565b505b505050565b5f5481565b5f5ffd5b5f819050919050565b61099781610985565b81146109a1575f5ffd5b50565b5f813590506109b28161098e565b92915050565b5f602082840312156109cd576109cc610981565b5b5f6109da848285016109a4565b91505092915050565b5f73ffffffffffffffffffffffffffffffffffffffff82169050919050565b5f610a0c826109e3565b9050919050565b610a1c81610a02565b82525050565b610a2b81610985565b82525050565b7f4e487b71000000000000000000000000000000000000000000000000000000005f52602160045260245ffd5b60048110610a6f57610a6e610a31565b5b50565b5f819050610a7f82610a5e565b919050565b5f610a8e82610a72565b9050919050565b610a9e81610a84565b82525050565b5f60c082019050610ab75f830189610a13565b610ac46020830188610a13565b610ad16040830187610a22565b610ade6060830186610a22565b610aeb6080830185610a95565b610af860a0830184610a22565b979650505050505050565b610b0c81610a02565b8114610b16575f5ffd5b50565b5f81359050610b2781610b03565b92915050565b5f5f5f60608486031215610b4457610b43610981565b5b5f610b5186828701610b19565b9350506020610b62868287016109a4565b9250506040610b73868287016109a4565b9150509250925092565b5f602082019050610b905f830184610a22565b92915050565b5f819050919050565b5f610bb9610bb4610baf846109e3565b610b96565b6109e3565b9050919050565b5f610bca82610b9f565b9050919050565b5f610bdb82610bc0565b9050919050565b610beb81610bd1565b82525050565b5f602082019050610c045f830184610be2565b92915050565b5f5f60408385031215610c2057610c1f610981565b5b5f610c2d858286016109a4565b9250506020610c3e858286016109a4565b9150509250929050565b5f82825260208201905092915050565b7f6e6f7420657870697265640000000000000000000000000000000000000000005f82015250565b5f610c8c600b83610c48565b9150610c9782610c58565b602082019050919050565b5f6020820190508181035f830152610cb981610c80565b9050919050565b7f77726f6e672073746174757300000000000000000000000000000000000000005f82015250565b5f610cf4600c83610c48565b9150610cff82610cc0565b602082019050919050565b5f6020820190508181035f830152610d2181610ce8565b9050919050565b5f604082019050610d3b5f830185610a13565b610d486020830184610a22565b9392505050565b5f8115159050919050565b610d6381610d4f565b8114610d6d575f5ffd5b50565b5f81519050610d7e81610d5a565b92915050565b5f60208284031215610d9957610d98610981565b5b5f610da684828501610d70565b91505092915050565b7f726566756e64206661696c6564000000000000000000000000000000000000005f82015250565b5f610de3600d83610c48565b9150610dee82610daf565b602082019050919050565b5f6020820190508181035f830152610e1081610dd7565b9050919050565b7f696e76616c69642063726561746f7200000000000000000000000000000000005f82015250565b5f610e4b600f83610c48565b9150610e5682610e17565b602082019050919050565b5f6020820190508181035f830152610e7881610e3f565b9050919050565b7f696e76616c6964207061796f75740000000000000000000000000000000000005f82015250565b5f610eb3600e83610c48565b9150610ebe82610e7f565b602082019050919050565b5f6020820190508181035f830152610ee081610ea7565b9050919050565b7f4e487b71000000000000000000000000000000000000000000000000000000005f52601160045260245ffd5b5f610f1e82610985565b91507fffffffffffffffffffffffffffffffffffffffffffffffffffffffffffffffff8203610f5057610f4f610ee7565b5b600182019050919050565b5f610f6582610985565b9150610f7083610985565b9250828201905080821115610f8857610f87610ee7565b5b92915050565b7f6e6f742073706f6e736f720000000000000000000000000000000000000000005f82015250565b5f610fc2600b83610c48565b9150610fcd82610f8e565b602082019050919050565b5f6020820190508181035f830152610fef81610fb6565b9050919050565b7f65786365656473206d61780000000000000000000000000000000000000000005f82015250565b5f61102a600b83610c48565b915061103582610ff6565b602082019050919050565b5f6020820190508181035f8301526110578161101e565b9050919050565b7f7061796f7574206661696c6564000000000000000000000000000000000000005f82015250565b5f611092600d83610c48565b915061109d8261105e565b602082019050919050565b5f6020820190508181035f8301526110bf81611086565b9050919050565b5f6110d082610985565b91506110db83610985565b92508282039050818111156110f3576110f2610ee7565b5b9291505056fea26469706673582212200971de9f44c7c0e7b37eecc20a245f0f20bccbb2434c346b6bd01ee480b39a3964736f6c63430008210033","linkReferences":{}},"methodIdentifiers":{"complete(uint256,uint256)":"d6380f37","createPact(address,uint256,uint256)":"4de17faf","mnee()":"79b34cce","pactCount()":"f10fb3da","pacts(uint256)":"0edf25f5","refund(uint256)":"278ecde1"},"id":53}