{"abi":[{"type":"constructor","inputs":[{"name":"_mnee","type":"address","internalType":"address"},{"name":"_sponsor","type":"address","internalType":"address"},{"name":"_maxPayout","type":"uint256","internalType":"uint256"}],"stateMutability":"nonpayable"},{"type":"function","name":"earned","inputs":[],"outputs":[{"name":"","type":"uint256","internalType":"uint256"}],"stateMutability":"view"},{"type":"function","name":"maxPayout","inputs":[],"outputs":[{"name":"","type":"uint256","internalType":"uint256"}],"stateMutability":"view"},{"type":"function","name":"mnee","inputs":[],"outputs":[{"name":"","type":"address","internalType":"contract IERC20"}],"stateMutability":"view"},{"type":"function","name":"refund","inputs":[],"outputs":[],"stateMutability":"nonpayable"},{"type":"function","name":"refunded","inputs":[],"outputs":[{"name":"","type":"bool","internalType":"bool"}],"stateMutability":"view"},{"type":"function","name":"setEarned","inputs":[{"name":"_earned","type":"uint256","internalType":"uint256"}],"outputs":[],"stateMutability":"nonpayable"},{"type":"function","name":"sponsor","inputs":[],"outputs":[{"name":"","type":"address","internalType":"address"}],"stateMutability":"view"}],"bytecode":{"object":"0x608060405234801561000f575f5ffd5b506040516107a83803806107a883398181016040528101906100319190610150565b825f5f6101000a81548173ffffffffffffffffffffffffffffffffffffffff021916908373ffffffffffffffffffffffffffffffffffffffff1602179055508160015f6101000a81548173ffffffffffffffffffffffffffffffffffffffff021916908373ffffffffffffffffffffffffffffffffffffffff160217905550806002819055505050506101a0565b5f5ffd5b5f73ffffffffffffffffffffffffffffffffffffffff82169050919050565b5f6100ec826100c3565b9050919050565b6100fc816100e2565b8114610106575f5ffd5b50565b5f81519050610117816100f3565b92915050565b5f819050919050565b61012f8161011d565b8114610139575f5ffd5b50565b5f8151905061014a81610126565b92915050565b5f5f5f60608486031215610167576101666100bf565b5b5f61017486828701610109565b935050602061018586828701610109565b92505060406101968682870161013c565b9150509250925092565b6105fb806101ad5f395ff3fe608060405234801561000f575f5ffd5b506004361061007b575f3560e01c806377c936621161005957806377c93662146100c357806379b34cce146100e1578063d6f19262146100ff578063e0176de81461011d5761007b565b806312f539501461007f5780634b7781b91461009d578063590e1ae3146100b9575b5f5ffd5b61008761013b565b6040516100949190610302565b60405180910390f35b6100b760048036038101906100b29190610352565b61014d565b005b6100c1610157565b005b6100cb610293565b6040516100d891906103bc565b60405180910390f35b6100e96102b8565b6040516100f69190610430565b60405180910390f35b6101076102dc565b6040516101149190610458565b60405180910390f35b6101256102e2565b6040516101329190610458565b60405180910390f35b60045f9054906101000a900460ff1681565b8060038190555050565b60045f9054906101000a900460ff16156101a6576040517f08c379a000000000000000000000000000000000000000000000000000000000815260040161019d906104cb565b60405180910390fd5b5f6003546002546101b79190610516565b9050600160045f6101000a81548160ff0219169083151502179055505f5f9054906101000a900473ffffffffffffffffffffffffffffffffffffffff1673ffffffffffffffffffffffffffffffffffffffff1663a9059cbb60015f9054906101000a900473ffffffffffffffffffffffffffffffffffffffff16836040518363ffffffff1660e01b815260040161024f929190610549565b6020604051808303815f875af115801561026b573d5f5f3e3d5ffd5b505050506040513d601f19601f8201168201806040525081019061028f919061059a565b5050565b60015f9054906101000a900473ffffffffffffffffffffffffffffffffffffffff1681565b5f5f9054906101000a900473ffffffffffffffffffffffffffffffffffffffff1681565b60035481565b60025481565b5f8115159050919050565b6102fc816102e8565b82525050565b5f6020820190506103155f8301846102f3565b92915050565b5f5ffd5b5f819050919050565b6103318161031f565b811461033b575f5ffd5b50565b5f8135905061034c81610328565b92915050565b5f602082840312156103675761036661031b565b5b5f6103748482850161033e565b91505092915050565b5f73ffffffffffffffffffffffffffffffffffffffff82169050919050565b5f6103a68261037d565b9050919050565b6103b68161039c565b82525050565b5f6020820190506103cf5f8301846103ad565b92915050565b5f819050919050565b5f6103f86103f36103ee8461037d565b6103d5565b61037d565b9050919050565b5f610409826103de565b9050919050565b5f61041a826103ff565b9050919050565b61042a81610410565b82525050565b5f6020820190506104435f830184610421565b92915050565b6104528161031f565b82525050565b5f60208201905061046b5f830184610449565b92915050565b5f82825260208201905092915050565b7f616c726561647920726566756e646564000000000000000000000000000000005f82015250565b5f6104b5601083610471565b91506104c082610481565b602082019050919050565b5f6020820190508181035f8301526104e2816104a9565b9050919050565b7f4e487b71000000000000000000000000000000000000000000000000000000005f52601160045260245ffd5b5f6105208261031f565b915061052b8361031f565b9250828203905081811115610543576105426104e9565b5b92915050565b5f60408201905061055c5f8301856103ad565b6105696020830184610449565b9392505050565b610579816102e8565b8114610583575f5ffd5b50565b5f8151905061059481610570565b92915050565b5f602082840312156105af576105ae61031b565b5b5f6105bc84828501610586565b9150509291505056fea26469706673582212204b5768c6c9b23b50e0909284b5c5fda4d8f487ed8af5498da1479d46b372ebc764736f6c63430008210033","linkReferences":{}},"methodIdentifiers":{"earned()":"d6f19262","maxPayout()":"e0176de8","mnee()":"79b34cce","refund()":"590e1ae3","refunded()":"12f53950","setEarned(uint256)":"4b7781b9","sponsor()":"77c93662"},"id":52}